:1000000074EF00F00000000000EF00F000000000BE
:0A0010000000000000000000F3D71C
:10001C00000E1C1802E1020E1B1803E11B6A1C6A7D
:10002C008A70000E1A1802E10A0E191803E1196AF7
:06003C001A6A8A7212002C
:10004200F2A40AD0F2943C0ED76EB00ED66E1B4AC2
:0A0052001C2A194A1A2AE1DF1200E5
:10005C009EA01CD09E903C0ECF6EB00ECE6E174A5A
:10006C00182A000E181802E10A0E17180FE1176A69
:10007C00186A154A162A000E161802E1050E1518F4
:0E008C0005E1060E156E000E166E8A96120025
:10009A008AAA1D808AAA06D01DA004D01D908A862D
:0600AA00156A166A12003F
:1000B0000900F5CFE6FF0006FBE10106F9E11200B9
:1000C000010EC16EF00E936EF00E8A6E3C0ED76E6E
:1000D000B00ED66E820ED56E3C0ECF6EB00ECE6ECA
:0800E000F10ECD6E1D9012001F
:1000E800060E156E166A176A186A196A1A6A1B6A62
:0E00F8001C6AE2DFCEDFA1DFADDFFCD7FFD751
:020000040030CA
:0E0000001B0E1F1EFF8381FF0FC00FE00F407D
:00000001FF
