:10000000E4758130759000C2B1743812006B7406CB
:1000100012006B740C12006B740112006BD2B1747D
:100020005912006B744812006B744112006B744ECD
:1000300012006BC2B1741412006BD2B1744312007F
:100040006B744812006B745212006B744912006B8F
:10005000745312006B745412006B744912006B7469
:100060004112006B744E12006B80FEF590D2B012FC
:100070000075C2B0227802790A7AFADAFED9FAD883
:02008000F62266
:00000001FF
