:02000000422A92
:10000800FF00030E8301AB000A08AA008A017008EA
:10001800A0008C1C23288C100130A606261C23283F
:10002800A30A0319A40A2408013A031D1D28EA306B
:100038002306031D23280230A606A301A4012008D5
:10004800F0002A088A002B0E8300FF0E7F0E09009D
:10005800103083120313FD00FD0B30280000080048
:04006800000008008C
:10006C00083083120313FC002330FD00FD0B3C28E9
:06007C00FC0B3C2808000B
:1000820083120313B91B4728861348288617391B86
:100092004C2806134D280617B91A512886125228E1
:1000A2008616391A562806125728061627185B286C
:1000B20006155C280611861534208611B9196328A5
:1000C20086136428861739196828061369280617C3
:1000D200B9186D2886126E288616391872280612EB
:1000E200732806162718772806157828061186150C
:1000F20034208611271C7F28362080282C200800D7
:0E0102008312031329088A00280882000800CF
:1001100083120313FB01FA01F9018030F800F10C9E
:10012000F00C031C9C287408F90775080318750F58
:10013000FA070318FB0A0310F01FA4287408FA0733
:1001400075080318750FFB07FB0CFA0CF90CF80C7B
:10015000031C8F287B08F3007A08F2007908F1006D
:060160007808F000080021
:1001660083120313F801F9011030FC00710DF80D2C
:10017600F90D7408F8027508031C750FF9020318C7
:10018600CB287408F80775080318750FF9070310CC
:0A019600F00DF10DFC0BB928080074
:1001A0008316031386110611061286120613861390
:1001B0008312861106118613061386120612362044
:1001C00036203620861606168615342086113620EF
:1001D0008615342086113620861534208611362067
:1001E0000612861534208611362086153420861195
:1001F0008612861786153420861136208613061639
:100200008615342086110612861534208611362074
:100210008615342086110616861534208611362060
:1002200006128615342086118617061786160616BE
:0C023000861534208611362027140800A3
:10023C00831203137008F100F0010830FC00710800
:10024C00F40C03182D29FC0B2629F10100340310A2
:10025C003229F40C0318F107F10CF00CFC0B2F29CC
:02026C00080088
:10026E0083120313F8010830FC00700DF80D7408AA
:10027E00F80203184429F8070310F00DFC0B3C2973
:02028E00080066
:100290008312031327103608B900412027140800E1
:1002A0006229803083120313B6007529C030B6006E
:1002B00075299430B6007529D430B6007529803080
:1002C000B6007529831203133608013A0319512920
:1002D0003608023A031956293608033A03195929F0
:1002E0003608043A03195C295F293703F000360801
:1002F000F0077008B60027147008B90041202710D5
:0A0300003808B90041202714080056
:10030A003C3083120313F4000030F5002108F0009A
:10031A002208F100B3203C30F4000030F500B3208D
:10032A007008B4000030F1001030F4000E30F5000F
:10033A00882070082102F0007108031C013E220285
:10034A00F1003C30F4000030F500B3207008B3002F
:10035A002208003C031DB32921083B3C0318C72986
:10036A003308F0003C30F4001E217008B500340850
:10037A00F0001030F4001E213508F0077008210241
:10038A00B200CB292108B200B301B4010A30F4004B
:10039A003408F00037217008AC000A30F400340841
:1003AA00F00037217808F0007008AD000A30F40038
:1003BA003308F00037217008AE000A30F400330821
:1003CA00F00037217808F0007008AF000A30F40016
:1003DA003208F00037217008B0000A30F400320801
:1003EA00F00037217808F0007008B1000130B6003B
:1003FA000530B70030302C07B800502130302D07B7
:10040A00B60048213A30B600482130302E07B600EF
:10041A00482130302F07B60048213A30B60048212B
:10042A0030303007B600482130303107B600482155
:02043A000800B8
:10043C00D0200130B90041200C30B9004120080017
:10044C0081208A110A128000840AA80A0319A90AB9
:08045C00F003031D262A08002D
:100464000730831203139F00831606108B170B1794
:100474008C14013083129200250883169200080020
:1004840083120313A101A201A301A401FF30A5005B
:1004940032221E2212158521A61C542AA10A0319F0
:0804A400A20AA6104C2A552AF9
:02400E00692126
:00000001FF
