:02000000EC29E9
:10000800FF00030E8301AB000A08AA008A017008EA
:10001800A0008C1C23288C100130A606261C23283F
:10002800A30A0319A40A2408013A031D1D28EA306B
:100038002306031D23280230A606A301A4012008D5
:10004800F0002A088A002B0E8300FF0E7F0E09009D
:10005800103083120313FD00FD0B30280000080048
:04006800000008008C
:10006C00083083120313FC002330FD00FD0B3C28E9
:06007C00FC0B3C2808000B
:1000820083120313B91B4728861348288617391B86
:100092004C2806134D280617B91A512886125228E1
:1000A2008616391A562806125728061627185B286C
:1000B20006155C280611861534208611B9196328A5
:1000C20086136428861739196828061369280617C3
:1000D200B9186D2886126E288616391872280612EB
:1000E200732806162718772806157828061186150C
:1000F20034208611271C7F28362080282C200800D7
:0E0102008312031329088A00280882000800CF
:1001100083120313F801F9011030FC00710DF80D82
:10012000F90D7408F8027508031C750FF90203181D
:10013000A0287408F80775080318750FF90703104D
:0A014000F00DF10DFC0B8E280800F5
:10014A0083120313FB01FA01F9018030F800F10C64
:10015A00F00C031CB9287408F90775080318750F01
:10016A00FA070318FB0A0310F01FC1287408FA07DC
:10017A0075080318750FFB07FB0CFA0CF90CF80C41
:10018A00031CAC287B08F3007A08F2007908F10016
:06019A007808F0000800E7
:1001A000831203137008F100F0010830FC0071089D
:1001B000F40C0318DF28FC0BD828F10100340310DD
:1001C000E428F40C0318F107F10CF00CFC0BE12807
:0201D000080025
:1001D20083120313F8010830FC00700DF80D740847
:1001E200F8020318F628F8070310F00DFC0BEE28AE
:0201F200080003
:1001F4000C29803083120313B6001F29C030B600C7
:100204001F299430B6001F29D430B6001F2980302E
:10021400B6001F29831203133608013A0319FB2879
:100224003608023A031900293608033A0319032948
:100234003608043A0319062909293703F000360859
:10024400F0077008B60027147008B9004120271081
:0A0254003808B90041202714080003
:10025E008312031327103608B90041202714080013
:10026E000730831203139F00831606108B170B178C
:10027E008C14013083129200250883169200080018
:10028E003C3083120313F4000030F5002108F00017
:10029E002208F10088203C30F4000030F500882060
:1002AE007008B4000030F1001030F4000E30F5008C
:1002BE00A52070082102F0007108031C013E2202E5
:1002CE00F1003C30F4000030F50088207008B300D7
:1002DE0000302202031D75293B30210203188929A3
:1002EE003308F0003C30F400D0207008B50034081C
:1002FE00F0001030F400D0203508F007700821020D
:10030E00B2008D292108B200B301B4010A30F40005
:10031E003408F000E9207008AC000A30F40034080C
:10032E00F000E9207808F0007008AD000A30F40003
:10033E003308F000E9207008AE000A30F4003308EC
:10034E00F000E9207808F0007008AF000A30F400E1
:10035E003208F000E9207008B0000A30F4003208CC
:10036E00F000E9207808F0007008B1000130B60006
:10037E000530B70030302C07B800FA2030302D078A
:10038E00B6002F213A30B6002F2130302E07B6009E
:10039E002F2130302F07B6002F213A30B6002F21F3
:1003AE0030303007B6002F2130303107B6002F2104
:0203BE00080035
:1003C00081208A110A128000840AA80A0319A90A46
:0803D000F003031DE029080001
:1003D80083120313A101A201A301A401FF30A50008
:1003E8003721831212154721A61CFE29A10A0319D9
:0803F800A20AA610F529FF2955
:02400E00692126
:00000001FF
