:1000000075A0007590FF7581607830120166C2A0FE
:1000100030A71130A61E30A52B30A438D2A0120173
:10002000660200647401F608F590C2B730A0FDD2F4
:10003000B70200137404F608F590C2B730A1FDD2E0
:10004000B70200167407F608F590C2B730A2FDD2C9
:10005000B7020019740AF608F590C2B730A3FDD2B2
:10006000B702001CC2A130A71130A61E30A52B304C
:10007000A438D2A11201660200BA7402F608F59003
:10008000C2B730A0FDD2B70200697405F608F5903A
:10009000C2B730A1FDD2B702006C7408F608F59023
:1000A000C2B730A2FDD2B702006F7400F608F59017
:1000B000C2B730A3FDD2B7020072C2A230A711307E
:1000C000A61E30A52B30A438D2A212016602011060
:1000D0007403F608F590C2B730A0FDD2B70200BF96
:1000E0007406F608F590C2B730A1FDD2B70200C27F
:1000F0007409F608F590C2B730A2FDD2B70200C568
:10010000740BF608F590C2B730A3FDD2B70200C851
:10011000C2A330A71130A61E30A52B30A438D2A31D
:1001200012016602000E740DF608F590C2B730A0F9
:10013000FDD2B7020115740CF608F590C2B730A1D4
:10014000FDD2B7020118740EF608F590C2B730A2BE
:10015000FDD2B702011B740FF608F590C2B730A3A9
:10016000FDD2B702011E780279197A32DAFED9FA85
:03017000D8F6229C
:00000001FF
