:1000000074017B0175B0FF7590FFF5A01200877534
:10001000A0000375B0337590EEF5A012008775A0AF
:10002000000375B030759077F5A012008775A000B9
:100030000375B033759077F5A012008775A00003A3
:1000400075B0FF7590DAF5A012008775A0000375F2
:10005000B0FF7590FFF5A012008775A0000375B082
:10006000FF7590FFF5A012008775A0000375B0FF23
:100070007590FFF5A012008775A00003DB028003D6
:1000800002000403020004780279057A0ADAFED934
:04009000FAD8F62282
:00000001FF
