:100000007580FF7590FF120088C2A020A403758040
:100010000F20A50375800E20A60375800D20A70371
:1000200075800CD2A0120088C2A120A40375800B99
:1000300020A50375800320A60375800620A70375FD
:100040008009D2A1120088C2A220A40375800020DA
:10005000A50375800220A60375800520A70375807F
:1000600008D2A2120088C2A320A40375800A20A58A
:100070000375800120A60375800420A703758007FF
:10008000D2A3120088020006780279197A32DAFEC9
:05009000D9FAD8F622A8
:00000001FF
