:10000000F8EF04F00000000000EF00F00000000036
:0A0010000000000000000000F3D71C
:10001C000B840BAE19EF00F0010E036E026A016A3D
:0A002C00006A0A360232FF0E1200CD
:0A00360000000000000000001200AE
:100040000B820BAE2AEF00F00368026801680068BB
:080050000A360232FF0E120015
:080058000AAE029E000E120028
:0E006000026A016A006A086A036A000E120052
:0C006E00420E0D6E0D2EFED70000120099
:10007A001D0E0C6E910E0D6E0D2EFED70C2EFCD79A
:02008A00120062
:10008C00086A096A000E07620364CBEF00F00250A5
:10009C0006180A6E075003267E0ED8A05CEF00F0FF
:1000AC00035ED8B0CFEF00F060EF00F0035ED8A095
:1000BC00D3EF00F0028E068E02C00EF001C00BF0E2
:1000CC0000C00DF000500402F4CF0CF001500502FA
:1000DC00F4CF00F0F3CF08F00402F3500C26F450E8
:1000EC000822000E00220D500502F3500C26F4508D
:1000FC000822000E002202500402F3500826F4508D
:10010C00002202500502016A000E0122F350002663
:10011C00F45001220D500602F3500826F450002230
:10012C00026A000E012202220B500602F350002636
:10013C00F4500122000E02220E500602F35001264A
:10014C00F450022202BEB3EF00F00836003601363E
:10015C0002360306D8B4D3EF00F0C6EF00F0D88017
:10016C00800E08640030000E002201220222D8A06A
:10017C00C6EF00F0023201320032034ACFEF00F03A
:10018C000AAE029E000ED5EF00F0010E63DFD5EF34
:10019C0000F0020E4FDFD5EF00F0040E39DF120035
:1001AC000A6A0350D8A40A800750D8A40A820A50BD
:1001BC00D8B439EF01F0030AD8B4F2EF00F00AB06A
:1001CC00EDEF00F006AE37EF01F035EF01F002AEC7
:1001DC0035EF01F037EF01F00250800B0A6E029EF2
:1001EC000650800B069E0A18D8B403EF01F00A5093
:1001FC00D8B435EF01F037EF01F00750035CD8B4F9
:10020C000DEF01F0D8A029EF01F02FEF01F006500F
:10021C00025CD8B417EF01F0D8A029EF01F02FEF52
:10022C0001F00550015CD8B421EF01F0D8A029EF02
:10023C0001F02FEF01F00450005CD8B439EF01F05D
:10024C00D8B02FEF01F00A52D8B437EF01F035EFE8
:10025C0001F00A52D8B435EF01F037EF01F0D88035
:0E026C001200D8901200D880D8841200120020
:10027A0035BE02D0839E01D0838E35BC02D0839CCA
:10028A0001D0838C35BA02D0839A01D0838A35B8DB
:10029A0002D0839801D0838824B002D0838401D00D
:1002AA0083948386C3DE839635B602D0839E01D0BB
:1002BA00838E35B402D0839C01D0838C35B202D0B0
:1002CA00839A01D0838A35B002D0839801D083887B
:1002DA0024B002D0838401D083948386A7DE8396D8
:0C02EA0024A002D0C5DE01D0BDDE120051
:1002F600086A080E0C6E003408360450085ED8B042
:0E03060002D00826D89000360C2EF5D7120033
:100314000C6A0E6A0250D8A4A3EF01F001C002F0E7
:1003240000C001F0006A0E860250D8A4A3EF01F0C9
:1003340001C002F0016A0E960E880250D8B4B5EFDF
:1003440001F00E50035ED8A4D8A0BAEF01F0D89003
:1003540002BEBFEF01F0003601360236032EAAEFCB
:1003640001F0BAEF01F0010E0C6E78DEC2EF01F07D
:10037400020E0C6E51DEC2EF01F0040E0C6E6ADE4A
:02038400120065
:1003860035C004F036C005F004C002F005C003F025
:10039600044A052A37C000F038C001F0374A382A27
:1003A60000C0E9FF01C0EAFF02C0E1FF03C0E2FFAF
:1003B600EECFE6FF02C0E9FF03C0EAFFEE5201E01E
:0C03C600E3D735C000F036C001F0120093
:1003D2000050086E0150006E016A026A036A0B6ADD
:1003E2000C6A960E036E0A6A00C001F008C000F0A3
:0803F200086A026A8EDF1200A6
:1003FA00959695949598959A959C959E83968394AF
:10040A00839E839C839A839833DE32DE31DE838A2D
:10041A00838883860BDE83962BDE838607DE8396AC
:10042A0027DE838603DE839623DE83988386FEDDBA
:10043A0083961EDE8386FADD8396839A838E83866D
:10044A00F5DD839615DE839E83888386EFDD8396AA
:10045A0083988386EBDD83960BDE8386E7DD8396BE
:10046A0083888386E3DD839603DE83988386DEDDD5
:10047A008396838E838C838A83888386D7DD83964B
:06048A00F7DD24801200E2
:0C049000249027C035F0F1DE248012001B
:10049C000FD0800E276E19D0C00E276E16D0940E7A
:1004AC00276E13D0D40E276E10D0800E276E0DD071
:1004BC002750010AEEE02750020AEEE02750030A0B
:1004CC00EEE02750040AEEE0F0D72804006E275027
:1004DC00002600C027F0248000C035F0C8DE249030
:0A04EC0029C035F0C4DE24801200A0
:1004F600336A346A27C02FF028C030F029C031F0A3
:100506002AC032F03250FF0A08E13150FF0A05E1F5
:100516003050FF0A02E12F50FF0A0CE12BC035F0E4
:100526002CC036F0150E376E000E386E29DF030E1E
:10053600006EE5D1010E2D6E31AE0ED0800E311853
:10054600006E00C031F02D2A2BC0E1FF2CC0E2FF67
:100556002D0EE66E2B4A2C2A000E006E321808E18C
:100566000050311805E10050301802E12F50000A02
:100576000BE12BC035F02CC036F0190E376E000E8D
:10058600386EFEDE006ABBD13250FF0A08E13150F8
:10059600000A05E13050000A02E12F50000A0CE182
:1005A6002BC035F02CC036F01B0E376E000E386EA1
:1005B600E7DE2DC000F0A3D1000E046E000E056E1E
:1005C600000E066E7F0E076E2FC000F030C001F0E1
:1005D60031C002F032C003F0E6DD010ED8B0000EE5
:1005E600006E00521BE02FC000F030C001F031C099
:1005F60002F032C003F0000E046E000E056E200EEF
:10060600066E820E076E3FDD00C02FF001C030F08F
:1006160002C031F003C032F03406CED7000E046EAD
:10062600000E056E200E066E820E076E2FC000F0BD
:1006360030C001F031C002F032C003F0B4DD000E6C
:10064600D8B0010E006E00521BE02FC000F030C083
:1006560001F031C002F032C003F0CD0E046ECC0EB4
:10066600056E4C0E066E7B0E076E0DDD00C02FF07C
:1006760001C030F002C031F003C032F0342ACED7C8
:10068600FF0E2F14086EFF0E3014096E7F0E311404
:100696000A6E000E32140B6E08C004F009C005F095
:1006A6000AC006F00BC007F004360490053606367D
:1006B6000736000E2F14006E000E3014016E000E69
:1006C6003114026EFF0E3214036E00C02FF001C00B
:1006D60030F002C031F003C032F004502F10006E2B
:1006E60005503010016E06503110026E0750321060
:1006F600036E00C02FF001C030F002C031F003C01D
:1007060032F07F0E325C006E00C02EF0010E326EAB
:1007160000C004F02FC000F030C001F031C002F07C
:1007260032C003F0045007E000360090013602366E
:100736000336FF0FF8D700C02FF001C030F002C01B
:1007460031F003C032F02BC0E1FF2CC0E2FF325083
:10075600300FE66E2B4A2C2A800E3418006E800E5F
:10076600010A005C08E3800E060A006E800E34184B
:10077600005C01E30AD02BC0E1FF2CC0E2FF2E0E85
:10078600E66E2B4A2C2A010E336E060E2E6E2E5066
:10079600000A54E0326A2FC000F030C001F031C0C8
:1007A60002F032C003F000360090013602360336FE
:1007B600003600900136023603362F5000263050A0
:1007C6000122315002223250032200C02FF001C014
:1007D60030F002C031F003C032F02FC000F030C05C
:1007E60001F031C002F032C003F00036009001364D
:1007F6000236033600C02FF001C030F002C031F0DF
:1008060003C032F02BC0E1FF2CC0E2FF3250300FA4
:10081600E66E2B4A2C2A3350000A0EE13406345079
:10082600000A0AE12BC0E1FF2CC0E2FF2E0EE66EA5
:100836002B4A2C2A010E336E2E06A9D7FF0E2B2427
:10084600E96EFF0E2C20EA6EEE50300A05E1010E2D
:100856002B5E000E2C5AF2D7FF0E2B24E96EFF0EEC
:100866002C20EA6EEE502E0A04E1010E2B5E000EDD
:100876002C5A3450000A3DE02BC0E1FF2CC0E2FFA9
:10088600650EE66E2B4A2C2A800E3418006E800EFA
:10089600000A005C0BE22BC0E1FF2CC0E2FF2D0E2C
:1008A600E66E2B4A2C2A34500008346E34C02EF0E3
:1008B600345009080EE20A0E046E2EC000F018DD50
:1008C6002BC0E1FF2CC0E2FF0050300FE66E2B4A32
:1008D6002C2A0A0E046E2EC000F00ADD08C000F0B5
:1008E6002BC0E1FF2CC0E2FF0050300FE66E2B4A12
:1008F6002C2A2BC0E1FF2CC0E2FFE66A006A120038
:1009060079DD0C0E356EB6DC010E356EB3DC1200E9
:100916000F0EC16EE80ED56E0E0E936E8A6AD66AFB
:0E092600B10ECD6E3C0ECF6EB00ECE6E120036
:100934000900F5CFE6FF0006FBE10106F9E112002C
:10094400D6CF25F0000E266E25C000F026C001F09B
:100954003EDD00C027F001C028F002C029F003C02A
:100964002AF0200E2B6E000E2C6EC3DD010E276EB6
:10097400040E286E460E296E8FDD720E276E86DDFC
:10098400650E276E83DD710E276E80DD750E276E72
:100994007DDD650E276E7ADD6E0E276E77DD630EC4
:1009A400276E74DD690E276E71DD610E276E6EDDB4
:1009B400020E276E060E286E20C029F06DDD21C0C0
:1009C40027F064DD22C027F061DD23C027F05EDD5F
:1009D40024C027F05BDD020E276E0C0E286E480E35
:0C09E400296E5ADD7A0E276E51DD1200DC
:1009F00011EC05F090DF87DF9EA00CD09E903C0E9E
:100A0000CF6EB00ECE6E1F2A1F500A0A03E19ADF86
:080A10008A701F6AF1D7FFD7BD
:100A220010EE15F00A0E006E010E016E180EF66E33
:0E0A32000A0EF76E000EF86E9AEC04F0120039
:040A18004E614E00DD
:020A1C003000A8
:040A1E00494E4600F7
:020000040030CA
:0E0000003B0E1F1EFF8381FF0FC00FE00F405D
:00000001FF
