:02000000AC2A28
:06000600000000000800EC
:10000C000E3083120313FD00FD0B0A2800000800BC
:10001C0083120313B50106112F30FC00BF30FD0015
:10002C00FD0B1628FC0B1628000000000615831685
:10003C0006158312B501061D2B283508283C031C18
:10004C002B28B50A000000002128B5010619362816
:10005C003508503C031C3628B50A000000002C283B
:10006C00B501061D41283508503C031C4128B50A32
:08007C00000000003728080015
:10008400710DF80DF90D7408F8027508031C750F4D
:10009400F902F00DF10D0F30FC00710DF80DF90DA2
:1000A4007408701C5B28F8027508031C750FF902AC
:1000B4006028F80775080318750FF907F00DF10D9E
:1000C400FC0B4F2870186C287408F807750803187F
:0800D400750FF9070000080098
:1000DC0083120313FB01FA01F9018030F800F10CD3
:1000EC00F00C031C82287408F90775080318750FA7
:1000FC00FA070318FB0A0310F01F8A287408FA0782
:10010C0075080318750FFB07FB0CFA0CF90CF80CAF
:10011C00031C75287B08F3007A08F2007908F100BB
:06012C007808F000080055
:10013200831603130611831206150B30FB002630BB
:10014200FC005D30FD00FD0BA428FC0BA428FB0B7A
:08015200A428000000000800D1
:10015A0083160313851405110510831285100511E2
:04016A000510080074
:10016E0083120313B101B201B301B4010E20831641
:10017E0006158312B001B0013008033C031C4B2955
:10018E000130B4000130B4003408083C031C3E2991
:10019E000619D228CF28B301B101B201061DEB28F2
:1001AE00B10A0319B20A80303206F00080307002B4
:1001BE00031DE32802303102031CEA283308031D15
:1001CE00EA280130B300D5281C293318F028201056
:1001DE00F12820143C293318F628A010F728A01473
:1001EE003C293318FC282011FD2820153C293318F2
:1001FE000229A0110329A0153C2933180829201221
:10020E00092920163C2933180E29A0120F29A016F1
:10021E003C29331814292013152920173C2933188B
:10022E001A29A0131B29A0173C293408083A0319D0
:10023E00EC283408073A0319F2283408063A031951
:10024E00F8283408053A0319FE283408043A03192D
:10025E0004293408033A03190A293408023A031907
:10026E0010293408013A03191629B40ACB2830088C
:10027E00F000F00D70107008213E84002008800000
:10028E00840A8001B00AC32883160611831206154C
:10029E002F08013A031D63292108F0002208F100FE
:1002AE006430F4000030F5006E202308F0072408B7
:1002BE000318013EF10777292F08023A031D77290B
:1002CE002508F0002608F1006430F4000030F50037
:1002DE006E202708F00728080318013EF10777293A
:0202EE00080006
:0E02F000831203132A088A00290882000800DE
:1002FE00831203137408003A031D8E297508003A01
:10030E00031D8E29FF30F0007F30F100E7298312A4
:10031E000313FD01F901F80171087004031900348B
:10032E0071087506FA00FA1BFD09FB01F51FA429D9
:10033E00F409F509F40A0319F50AF11FAB29F009BE
:10034E00F109F00A0319F10A71087504FA00FA1B93
:10035E00C02942207B18D329FD1F0034F009F10972
:10036E00F00A0319F10AF809F909F80A0319F90A4A
:10037E000034F51FCF29F11BCB297108F900700845
:10038E00F800F101F001B329F101F001F00A003497
:10039E00F109F009FB0AB029F80A0319F90A7408E1
:1003AE007802031DB32975087902031DB329F901DB
:1003BE00F801F00A0319F10AF11FB3290000FF3406
:0203CE00080025
:1003D000803083120313B000AF0930080319062AD6
:1003E00030082F05F10071080130031D0030F000C6
:1003F0007018FC290511FD2905150320032005149B
:0E040000062005100620B00CB013ED290800F0
:10040E00282A3F3083120313F100522A0630F100DE
:10041E00522A5B30F100522A4F30F100522A6630D8
:10042E00F100522A6D30F100522A7D30F100522A2D
:10043E000730F100522A7F30F100522A6F30F1005E
:10044E00522A831203132F08003A0319082A2F0881
:10045E00013A03190D2A2F08023A0319102A2F0800
:10046E00033A0319132A2F08043A0319162A2F08E0
:10047E00053A0319192A2F08063A03191C2A2F08C0
:10048E00073A03191F2A2F08083A0319222A2F08A0
:0C049E00093A0319252A7109F000080032
:1004AA00023083120313AF00B7207008AD00710841
:1004BA00AE006430F4000030F5007F217008AD0012
:1004CA007108AE000A30F4000030F5007F21700890
:1004DA00AC000A30F4000030F5002D08F0002E08B8
:1004EA00F1007F217808F0007908F1007008AB006C
:1004FA002C08AF000722831203137008AC002B08E4
:10050A00AF000722831203137008AB0006102C08F1
:10051A00AF00E821061486102B08AF00E8218614E4
:02052A000800C7
:10052C0078218A110A128000840AA90A0319AA0ADE
:08053C00F003031D962A0800DC
:100544000730831203139F00831606108610AD2014
:0405540099200800E2
:10055800A22255220330FB000830FC007730FD0052
:10056800FD0BB42AFC0BB42AFB0BB42AAD2ABB2A18
:02400E006A2125
:00000001FF
