:02000000B02826
:0E000600073083120313FD00FD0B07280800CE
:0E0014008312031321088A00200882000800CE
:0400220000000800D2
:100026008316031385140511051083128510051117
:0400360005100800A9
:10003A003E283F3083120313F10068280630F1008E
:10004A0068285B30F10068284F30F1006828663074
:10005A00F10068286D30F10068287D30F1006828C9
:10006A000730F10068287F30F10068286F30F1000E
:10007A006828831203132508003A03191E28250845
:10008A00013A031923282508023A031926282508C4
:10009A00033A031929282508043A03192C282508A4
:1000AA00053A03192F282508063A03193228250884
:1000BA00073A031935282508083A03193828250864
:0C00CA00093A03193B287109F0000800F6
:1000D6000A208A110A128000840AA00A0319A10ABA
:0800E600F003031D6B28080064
:1000EE000730831203139F000D30831686001320F2
:0200FE000800F8
:10010000803083120313A600A509260803199E2830
:1001100026082505F10071080130031D0030F000AC
:100120007018942805119528051511201120051423
:0E013000032005100320A60CA6138528080046
:10013E0083120313F8010830FC00700DF80D7408DB
:10014E00F8020318AC28F8070310F00DFC0BA428D6
:02015E00080097
:100160007720A201643022020318ED280A30F4003F
:100170002208F0009F207008A4000A30F400220832
:10018000F0009F207808F0007008A3002408A50064
:100190001D20831203137008A4002308A5001D204E
:1001A000831203137008A30006102408A500802002
:1001B000061486102308A500802086140230FB0058
:1001C0000430FC00BA30FD00FD0BE428FC0BE428F1
:1001D000FB0BE4280000A20AB228A201B128EF28F4
:02400E006A2125
:00000001FF
