:1000000075816078307580FF75900074001201462C
:100010008000C2A720A008740112012F12015320F2
:10002000A108740412012F12015320A208740712B0
:10003000012F12015320A308120153D2A70200B8C6
:10004000D2A7120153C2A620A008740212012F12D7
:10005000015320A108740512012F12015320A20898
:10006000740812012F12015320A308740012012FEB
:10007000120153D2A6C2A520A008740312012F12A8
:10008000015320A108740612012F12015320A20867
:10009000740912012F12015320A3030200A3D2A559
:1000A000020012C2A512014620A306120146020058
:1000B000CDD2A51201468000C2A712014620A30698
:1000C000120146020000D2A712014680D678307491
:1000D00000120146B6013208120146B6042B08127E
:1000E0000146B6072408120146B6021D0812014651
:1000F000B6051608120146B6060F7401F580C2A7B0
:1001000012014620A3FD020000C2B7120146C2A799
:1001100012014620A3FD12014620A3FD1201462034
:10012000A3FD120146D2A7120146D2B7020000F683
:10013000120146081201460590120146B836030224
:1001400000A31201462279027A327B32DBFEDAFA10
:10015000D9F6227C027D327E32DEFEDDFADCF6222A
:00000001FF
