:040000000AEF06F00D
:1000080000C015F0F2A410D0F294FF0ED66E7F0E49
:10001800D76E234A242A000E241802E1B40E2318AE
:0E00280003E1236A246A4D7015C000F0110038
:0E003600026A016A006A086A036A000E12007C
:100044000B840BAE2DEF00F0010E036E026A016A01
:0A005400006A0A360232FF0E1200A5
:08005E000AAE029E000E120022
:0A006600000000000000000012007E
:100070001D0E0C6E910E0D6E0D2EFED70C2EFCD7A4
:0200800012006C
:0C008200420E0D6E0D2EFED70000120085
:0A008E001D0E0D6E0D2EFED71200A0
:100098000C6A0E6A0250D8A465EF00F001C002F0A5
:1000A80000C001F0006A0E860250D8A465EF00F087
:1000B80001C002F0016A0E960E880250D8B477EF9C
:1000C80000F00E50035ED8A4D8A07CEF00F0D890C2
:1000D80002BE81EF00F0003601360236032E6CEFC7
:1000E80000F07CEF00F0010E0C6EA1DF84EF00F051
:1000F800020E0C6EA3DF84EF00F0040E0C6EABDF73
:020108001200E3
:10010A005BBE02D0819E01D0818E5BBC02D0819CF5
:10011A0001D0818C5BBA02D0819A01D0818A5BB806
:10012A0002D0819801D081884CB002D0818401D05C
:10013A008194818693DF81965BB602D0819E01D03D
:10014A00818E5BB402D0819C01D0818C5BB202D0DB
:10015A00819A01D0818A5BB002D0819801D08188CE
:10016A004CB002D0818401D08194818677DF819658
:0C017A004CA002D078DF01D07FDF120023
:100186000B6A0A6A096A00500402F4CF09F0F3CF39
:1001960008F001500502F4CF0BF0F3CF0AF000503F
:1001A6000502F3500926F4500A22E86A0B22015090
:1001B6000402F3500926F4500A22E86A0B2208C00A
:1001C60000F009C001F00AC002F00BC003F01200F3
:1001D6000B800BAEF7EF00F0026A0AAEFF0E026E5E
:0C01E600016E006E0A360232FF0E12009D
:1001F2000B820BAE03EF01F003680268016800682E
:080202000A360232FF0E120061
:10020A00C26A070EC012C08E5AC000F000360090B3
:10021A00003600900050C212C28034DFC282C2A2ED
:10022A0001D0FDD7C4CF01F0006AC3500012000EFE
:06023A000112C290120047
:0C0240004C905AC05BF061DF4C80120053
:10024C000B6A0350D8B46CEF01F002500A6E028EA8
:10025C008E0E035E03AE70EF01F0036C080E035CB0
:10026C00D8A04BEF01F0036E013602C001F0026A18
:10027C00080E035CD8A04BEF01F0036E0136016A47
:10028C000350D8A4D89055EF01F00350D8B455EFD3
:10029C0001F0D89002320132032E4FEF01F00BBC6B
:1002AC0001A062EF01F0D8A062EF01F0012AD8B4EE
:1002BC00022A02BE7FEF01F00AAE84EF01F0021EAB
:1002CC00011E012AD8B4022A84EF01F0026A016AE5
:1002DC0084EF01F00B800BAE88EF01F0026A0AAEDE
:1002EC0088EF01F0FF0E026E016E0A36023288EFC3
:1002FC0001F0010E0C6E69DF8AEF01F0000E0C6E3E
:10030C008AEF01F0FF0E0C6E0150006E0250016E70
:02031C001200CD
:10031E00086A096A000E0762036414EF02F00250C5
:10032E0006180A6E075003267E0ED8A0A5EF01F020
:10033E00035ED8B018EF02F0A9EF01F0035ED8A06B
:10034E001CEF02F0028E068E02C00EF001C00BF002
:10035E0000C00DF000500402F4CF0CF00150050265
:10036E00F4CF00F0F3CF08F00402F3500C26F45053
:10037E000822000E00220D500502F3500C26F450F8
:10038E000822000E002202500402F3500826F450F8
:10039E00002202500502016A000E0122F3500026CF
:1003AE00F45001220D500602F3500826F45000229C
:1003BE00026A000E012202220B500602F3500026A2
:1003CE00F4500122000E02220E500602F3500126B6
:1003DE00F450022202BEFCEF01F008360036013660
:1003EE0002360306D8B41CEF02F00FEF02F0D880ED
:1003FE00800E08640030000E002201220222D8A0D6
:10040E000FEF02F0023201320032034A18EF02F00F
:10041E000AAE029E000E1EEF02F0010E05DE1EEF6A
:10042E0002F0020EDFDE1EEF02F0040E04DE1200FA
:10043E000134083609360450085E0550D8A0053C34
:10044E00095E003601360F0E0C6E01340836093681
:10045E00045000A006D0085E0550D8A0053C095EE9
:10046E0005D008260550D8B0053C092600360136C1
:10047E000C2EEBD700B006D0045008260550D8B08D
:08048E00053C092600001200E4
:0A0496009494CA840C0EBD121200EB
:1004A00000C008F00150006E016A026A036A0B6A1C
:1004B0000C6A016A026A036A960E036E0A6A00AE4B
:1004C00068EF02F0081E001E082AD8B4002A0A8E1F
:1004D00000C001F008C000F0086A026ADDDD120009
:1004E000CB50010F006E016A000E01225AC004F0C9
:1004F000000E056E48DE060E026E00C004F001C05C
:1005000005F0025005E005320432059EFF0FFAD7D0
:10051000040E016E04C000F0015004E000360090AB
:10052000FF0FFBD7300E0014036E04C000F005C0AF
:1005300001F001320032019E01320032019E00C002
:0C054000BEFF0F0EBD160350BD121200CE
:10054C005A6A839E5E0E0C6E800E0D6E0D2EFED7BB
:10055C000C2EFCD70000838E958E5A6A83AE09D080
:10056C005A50280806E35A2A000000000000000038
:10057C00F5D75A6A83BE09D05A50500806E35A2A56
:10058C000000000000000000F5D75A6A83AE09D0C5
:10059C005A50500806E35A2A0000000000000000E0
:0605AC00F5D7839E12004A
:0A05B2009484CA94F00EBD161200E6
:0805BC00BE6ABD98BD9A120051
:1005C400FF0E486EFF0E496EFF0E4A6EFF0E4B6E15
:0C05D400C26A070EC012C08EC280120066
:1005E000566A576A586A596AB1DF958E546A546AD6
:1005F00054500308D8A08FD0010E596E010E596EC9
:1006000059500808D8A074D083BE0AD0586A566AD8
:10061000576A552A55501E0802E2556A01D0F4D790
:1006200083AE1BD0564A572A800E5718006E800E94
:10063000005C02E1040E565C04E3585202E1010E34
:10064000586E800E006E800E5718005C02E1565006
:100650001E0802E2556A01D0E3D730D058B002D06C
:10066000479001D0478042D058B002D0479201D085
:1006700047823CD058B002D0479401D0478436D04E
:1006800058B002D0479601D0478630D058B002D03B
:10069000479801D047882AD058B002D0479A01D055
:1006A000478A24D058B002D0479C01D0478C1ED036
:1006B00058B002D0479E01D0478E18D05950080A32
:1006C000CDE05950070AD0E05950060AD3E05950FE
:1006D000050AD6E05950040AD9E05950030ADCE073
:1006E0005950020ADFE05950010AE2E0592A88D73E
:1006F00054C000F0000E016E0036009001363F0E2F
:100700000024E16E000E0120E26E47C0E6FF000EFD
:10071000E66E542A6DD7959E838E5350010A0EE1E2
:100720003FC000F040C001F0640E046E000E056E84
:100730002ADD415000264250012211D05350020AB6
:100740000EE143C000F044C001F0640E046E000EE0
:10075000056E19DD455000264650012200D01200DA
:10076000939693949398939A939C939E8196819455
:10077000819E819C819A81987BDC7ADC79DC818AFC
:100780008188818670DC819673DC81866CDC819641
:100790006FDC818668DC81966BDC8198818663DC06
:1007A000819666DC81865FDC8196819A818E818666
:1007B0005ADC81965DDC819E8188818654DC81963D
:1007C0008198818650DC819653DC81864CDC819651
:1007D0008188818648DC81964BDC8198818643DC68
:1007E0008196818E818C818A818881863CDC81968C
:0607F0003FDC4C8012000A
:1007F6000450000A08E10550000A05E1FF0E006EEC
:100806007F0E016E57D00D6A096A086A0150001002
:10081600D8B4000C015005180A6E0ABE0D1E0B6AEC
:1008260005AE05D0041E051E042AD8B4052A01AE5D
:1008360005D0001E011E002AD8B4012A0150051059
:100846000A6E0ABE10D0F8DD0BB020D00DAE000C3B
:10085600001E011E002AD8B4012A081E091E082AF5
:10086600D8B4092A000C05AE0DD001BE07D0015040
:10087600096E0050086E016A006AE8D7016A006ACC
:10088600002A000C011E001E0B2ADDD7082AD8B448
:10089600092A0450085CD8A4D9D70550095CD8A405
:1008A600D5D7096A086A002AD8B4012A01AECED77C
:0608B6000000FF0C12001F
:1008BC005A6AA5DCEFDD000E046E000E056E480EC4
:1008CC00066E7B0E076E25DDBBDC00506408006EE7
:0808DC000150000E015612004C
:1008E4005350010A06E1D5DD500E5A6EF7DD8C80B7
:0808F40002D05DDE8C901200C1
:1008FC000FD0800E536E19D0C00E536E16D0940EBE
:10090C00536E13D0D40E536E10D0800E536E0DD088
:10091C005350010AEEE05350020AEEE05350030A22
:10092C00EEE05350040AEEE0F0D75404006E53503E
:10093C00002600C053F000C05BF085EC00F04C903A
:10094C00576A57505524E96E000E5620EA6EEE5247
:10095C000BE057505524E96E000E5620EA6EEECF90
:0C096C005AF068DC572AEDD74C801200CE
:100978000FD0800E536E19D0C00E536E16D0940E41
:10098800536E13D0D40E536E10D0800E536E0DD00C
:100998005350010AEEE05350020AEEE05350030AA6
:1009A800EEE05350040AEEE0F0D75404006E5350C2
:1009B800002600C053F04C8000C05BF085EC00F0CE
:0E09C8004C9055C05BF085EC00F04C801200A6
:1009D6000900F5CFE6FF0006FBE10106F9E112008A
:1009E600070EB46E0E0EC16EC26AE9DDE00EF26E3F
:1009F600720ED36E95908C909D80800ED56EFF0EF4
:100A0600D66E7F0ED76ECA80CA92C70ECB6ED3DD66
:020A16001200CC
:100A1800959E838E040E0B6E0C0E0C6E330E0D6EAF
:100A28000D2EFED70C2EFCD70B2EFAD70000000097
:020A38001200AA
:100A3A00020E536ED0DD00C04FF001C050F0640EBC
:100A4A00046E000E056ED2DE00C04FF001C050F0F9
:100A5A000A0E046E000E056EC9DE00C03DF00A0ED5
:100A6A00046E000E056E4FC000F050C001F0BEDEED
:100A7A0008C000F009C001F000C03EF0010E536E3C
:100A8A00010E546E160E556E000E566E32DF010EB2
:100A9A00536E0E0E546E300E3D24556E68DF300EC6
:0A0AAA003E245A6E20EC01F0120009
:100AB40055DE0C0E5B6E85EC00F0010E5B6E85EC72
:040AC40000F012002C
:100AC800010E536E89DD00C04FF001C050F0F2DE18
:100AD80000C051F001C052F0800E026E800E011865
:100AE800025C02E10050280804E3010E536EF6DEB2
:100AF8000BD0800E5218006E800E005C02E1410E91
:100B0800515C02E3536AEADE4DA03AD0640E046EEB
:100B1800000E056E4FC000F050C001F068DE00C046
:100B28004FF001C050F00A0E046E000E056E5FDE35
:100B380000C03DF00A0E046E000E056E4FC000F0B6
:100B480050C001F054DE08C000F009C001F000C038
:100B58003EF0020E536E010E546E310E556E000EAD
:100B6800566EC8DE020E536E0E0E546E300E3D24C5
:100B7800556EFEDE300E3E245A6E20EC01F045D054
:100B8800640E046E000E056E51C000F052C001F0F4
:100B98002EDE00C03DF00A0E046E000E056E51C038
:100BA80000F052C001F023DE0A0E3D02F3CF02F03E
:100BB8000250005C3E6E0A0E046E000E056E51C0B7
:100BC80000F052C001F013DE08C000F009C001F0C7
:100BD80000C04EF0020E536E010E546E250E556E77
:100BE800000E566E87DE020E536E0D0E546E300EDA
:100BF8003D24556EBDDE300E3E245A6E20EC01F0C9
:0C0C0800300E4E245A6E20EC01F0120059
:100C140043EC06F0E6DE4CDFFDDE0DDF040E0B6E6A
:100C24000C0E0C6E330E0D6E0D2EFED70C2EFCD753
:100C34000B2EFAD70000000045DF040E0B6E0C0EDD
:100C44000C6E330E0D6E0D2EFED70C2EFCD70B2E14
:0A0C5400FAD700000000E1D7FFD737
:100C860010EE16F0270E006E010E016E5E0EF66E69
:0E0C96000C0EF76E000EF86EEBEC04F0120080
:0D0C5E0054656D70657261747572613A00C5
:020C6B00000087
:0C0C6D00556D69642E20536F6C6F3A00C7
:0C0C7900556D69646164652041723A00A9
:020000040030CA
:0E0000001B0E1F1EFF8381FF0FC00FE00F407D
:00000001FF
