:0400000091EF05F087
:1000080000C015F0F2A411D0F294FF0ED66E7F0E48
:10001800D76E164A172A000E171802E1B40E1618E2
:1000280004E1166A176A3D708C7015C000F0110063
:0E003800026A016A006A086A036A000E12007A
:100046000B840BAE2EEF00F0010E036E026A016AFE
:0A005600006A0A360232FF0E1200A3
:0C006000420E0D6E0D2EFED700001200A7
:0A006C000000000000000000120078
:100076001D0E0C6E910E0D6E0D2EFED70C2EFCD79E
:02008600120066
:080088000AAE029E000E1200F8
:0A0090001D0E0D6E0D2EFED712009E
:10009A000B800BAE59EF00F0026A0AAEFF0E026E39
:0C00AA00016E006E0A360232FF0E1200DA
:1000B6000B820BAE65EF00F003680268016800680A
:0800C6000A360232FF0E12009F
:1000CE000C6A0E6A0250D8A480EF00F001C002F054
:1000DE0000C001F0006A0E860250D8A480EF00F036
:1000EE0001C002F0016A0E960E880250D8B492EF4B
:1000FE0000F00E50035ED8A4D8A097EF00F0D89071
:10010E0002BE9CEF00F0003601360236032E87EF5A
:10011E0000F097EF00F0010E0C6E87DF9FEF00F0FE
:10012E00020E0C6E89DF9FEF00F0040E0C6EA5DF41
:02013E001200AD
:100140005BBE02D0819E01D0818E5BBC02D0819CBF
:1001500001D0818C5BBA02D0819A01D0818A5BB8D0
:1001600002D0819801D081884DB002D0818401D025
:10017000819481867BDF81965BB602D0819E01D01F
:10018000818E5BB402D0819C01D0818C5BB202D0A5
:10019000819A01D0818A5BB002D0819801D0818898
:1001A0004DB002D0818401D0819481865FDF819639
:0C01B0004DA002D060DF01D053DF120030
:1001BC000134083609360450085E0550D8A0053CB9
:1001CC00095E003601360F0E0C6E01340836093606
:1001DC00045000A006D0085E0550D8A0053C095E6E
:1001EC0005D008260550D8B0053C09260036013646
:1001FC000C2EEBD700B006D0045008260550D8B012
:08020C00053C09260000120068
:100214000B6A0350D8B450EF01F002500A6E028EFC
:100224008E0E035E03AE54EF01F0036C080E035C04
:10023400D8A02FEF01F0036E013602C001F0026A6C
:10024400080E035CD8A02FEF01F0036E0136016A9B
:100254000350D8A4D89039EF01F00350D8B439EF43
:1002640001F0D89002320132032E33EF01F00BBCBF
:1002740001A046EF01F0D8A046EF01F0012AD8B45E
:10028400022A02BE63EF01F00AAE68EF01F0021E1B
:10029400011E012AD8B4022A68EF01F0026A016A39
:1002A40068EF01F00B800BAE6CEF01F0026A0AAE4E
:1002B4006CEF01F0FF0E026E016E0A3602326CEF33
:1002C40001F0010E0C6EE7DE6EEF01F0000E0C6E15
:1002D4006EEF01F0FF0E0C6E0150006E0250016EC5
:0202E400120006
:1002E6000B6A0A6A096A00500402F4CF09F0F3CFD8
:1002F60008F001500502F4CF0BF0F3CF0AF00050DE
:100306000502F3500926F4500A22E86A0B2201502E
:100316000402F3500926F4500A22E86A0B2208C0A8
:1003260000F009C001F00AC002F00BC003F0120091
:10033600C26A070EC012C08E5AC000F00036009086
:10034600003600900050C212C2809FDEC282C2A256
:1003560001D0FDD7C4CF01F0006AC3500012000ED1
:060366000112C29012001A
:10036C00086A096A000E076203643BEF02F0025050
:10037C0006180A6E075003267E0ED8A0CCEF01F0AB
:10038C00035ED8B03FEF02F0D0EF01F0035ED8A0CF
:10039C0043EF02F0028E068E02C00EF001C00BF08D
:1003AC0000C00DF000500402F4CF0CF00150050217
:1003BC00F4CF00F0F3CF08F00402F3500C26F45005
:1003CC000822000E00220D500502F3500C26F450AA
:1003DC000822000E002202500402F3500826F450AA
:1003EC00002202500502016A000E0122F350002681
:1003FC00F45001220D500602F3500826F45000224E
:10040C00026A000E012202220B500602F350002653
:10041C00F4500122000E02220E500602F350012667
:10042C00F450022202BE23EF02F0083600360136E9
:10043C0002360306D8B443EF02F036EF02F0D88050
:10044C00800E08640030000E002201220222D8A087
:10045C0036EF02F0023201320032034A3FEF02F073
:10046C000AAE029E000E45EF02F0010EDFDD45EFF5
:10047C0002F0020E1ADE45EF02F0040EDEDD120071
:0C048C004D905AC05BF056DE4D8012000F
:100498005A6A839E5E0E0C6E800E0D6E0D2EFED770
:1004A8000C2EFCD70000838E958E5A6A83AE09D035
:1004B8005A50280806E35A2A0000000000000000ED
:1004C800F5D75A6A83BE09D05A50500806E35A2A0B
:1004D8000000000000000000F5D75A6A83AE09D07A
:1004E8005A50500806E35A2A000000000000000095
:0604F800F5D7839E1200FF
:1004FE0000C008F00150006E016A026A036A0B6ABE
:10050E000C6A016A026A036A960E036E0A6A00AEEC
:10051E0097EF02F0081E001E082AD8B4002A0A8E91
:10052E0000C001F008C000F0086A026AC9DD1200BE
:10053E00FF0E496EFF0E4A6EFF0E4B6EFF0E4C6E97
:0C054E00C26A070EC012C08EC2801200EC
:10055A00939693949398939A939C939E819681945D
:10056A00819E819C819A819881DD80DD7FDD818AEF
:10057A008188818676DD819679DD818672DD819634
:10058A0075DD81866EDD819671DD8198818669DDF2
:10059A0081966CDD818665DD8196819A818E818660
:1005AA0060DD819663DD819E818881865ADD819630
:1005BA008198818656DD819659DD818652DD819644
:1005CA00818881864EDD819651DD8198818649DD5B
:1005DA008196818E818C818A8188818642DD81968D
:0605EA0045DD4D8012000A
:1005F000566A576A586A596A4FDF958E546A546A28
:1006000054500308D8A08FD0010E596E010E596EB8
:1006100059500808D8A074D083BE0AD0586A566AC8
:10062000576A552A55501E0802E2556A01D0F4D780
:1006300083AE1BD0564A572A800E5718006E800E84
:10064000005C02E1040E565C04E3585202E1010E24
:10065000586E800E006E800E5718005C02E15650F6
:100660001E0802E2556A01D0E3D730D058B002D05C
:10067000489001D0488042D058B002D0489201D072
:1006800048823CD058B002D0489401D0488436D03B
:1006900058B002D0489601D0488630D058B002D029
:1006A000489801D048882AD058B002D0489A01D042
:1006B000488A24D058B002D0489C01D0488C1ED023
:1006C00058B002D0489E01D0488E18D05950080A20
:1006D000CDE05950070AD0E05950060AD3E05950EE
:1006E000050AD6E05950040AD9E05950030ADCE063
:1006F0005950020ADFE05950010AE2E0592A88D72E
:1007000054C000F0000E016E003600900136400E1D
:100710000024E16E000E0120E26E48C0E6FF000EEC
:10072000E66E542A6DD7959E838E5350010A0EE1D2
:1007300040C000F041C001F0640E046E000E056E72
:10074000D2DD425000264350012211D05350020AFC
:100750000EE144C000F045C001F0640E046E000ECE
:10076000056EC1DD465000264750012200D0120020
:100770000FD0800E536E19D0C00E536E16D0940E4B
:10078000536E13D0D40E536E10D0800E536E0DD016
:100790005350010AEEE05350020AEEE05350030AB0
:1007A000EEE05350040AEEE0F0D75404006E5350CC
:1007B000002600C053F04D8000C05BF0C1DC4D90BE
:0A07C00055C05BF0BDDC4D80120057
:1007CA005A6AB4DD97DE000E046E000E056E480EFE
:0C07DA00066E7B0E076EC5DD18DD1200F8
:1007E6000450000A08E10550000A05E1FF0E006EFC
:1007F6007F0E016E57D00D6A096A086A0150001013
:10080600D8B4000C015005180A6E0ABE0D1E0B6AFC
:1008160005AE05D0041E051E042AD8B4052A01AE6D
:1008260005D0001E011E002AD8B4012A0150051069
:100836000A6E0ABE10D0BFDC0BB020D00DAE000C85
:10084600001E011E002AD8B4012A081E091E082A05
:10085600D8B4092A000C05AE0DD001BE07D0015050
:10086600096E0050086E016A006AE8D7016A006ADC
:10087600002A000C011E001E0B2ADDD7082AD8B458
:10088600092A0450085CD8A4D9D70550095CD8A415
:10089600D5D7096A086A002AD8B4012A01AECED78C
:0608A6000000FF0C12002F
:1008AC000FD0800E536E19D0C00E536E16D0940E0E
:1008BC00536E13D0D40E536E10D0800E536E0DD0D9
:1008CC005350010AEEE05350020AEEE05350030A73
:1008DC00EEE05350040AEEE0F0D75404006E53508F
:1008EC00002600C053F000C05BF024DC4D90576A2A
:1008FC0057505524E96E000E5620EA6EEE520BE06E
:10090C0057505524E96E000E5620EA6EEECF5AF081
:0A091C00B7DD572AEDD74D80120019
:10092600070EB46E0E0EC16EC26A06DEE00EF26EE1
:10093600720ED36E95908C909D80800ED56EFF0EB4
:08094600D66E7F0ED76E120081
:10094E000900F5CFE6FF0006FBE10106F9E1120012
:10095E00FDDD0C0E5B6EA0EC00F0010E5B6EA0ECEC
:04096E0000F0120083
:10097200020E536E3CDE00C04FF001C050F0640E18
:10098200046E000E056E2EDF00C04FF001C050F065
:100992000A0E046E000E056E25DF00C03EF00A0E40
:1009A200046E000E056E4FC000F050C001F01ADF59
:1009B20008C000F009C001F000C03FF0010E536E04
:1009C200010E546E180E556E000E566E6EDF010E3D
:1009D200536E0E0E546E300E3E24556EC8DE300E2F
:0809E2003F245A6E52DD1200A1
:1009EA00959E838E040E0B6E0C0E0C6E330E0D6EDE
:1009FA000D2EFED70C2EFCD70B2EFAD700000000C6
:020A0A001200D8
:100A0C00010E536EEFDD00C04FF001C050F0D7DE89
:100A1C0000C051F001C052F03DA039D0640E046EFC
:100A2C00000E056E4FC000F050C001F0D6DE00C0C5
:100A3C004FF001C050F00A0E046E000E056ECDDEB4
:100A4C0000C03EF00A0E046E000E056E4FC000F0A2
:100A5C0050C001F0C2DE08C000F009C001F000C0B7
:100A6C003FF0020E536E010E546E250E556E000EA5
:100A7C00566E16DF020E536E0E0E546E300E3E2462
:100A8C00556E70DE300E3F245A6EFADC43D0640E85
:100A9C00046E000E056E51C000F052C001F09DDED8
:100AAC0000C03EF00A0E046E000E056E51C000F040
:100ABC0052C001F092DE0A0E3E02F3CF02F0025059
:100ACC00005C3F6E0A0E046E000E056E51C000F005
:100ADC0052C001F082DE08C000F009C001F000C075
:100AEC004EF0020E536E010E546E310E556E000E0A
:100AFC00566ED6DE020E536E0D0E546E300E3E2424
:100B0C00556E30DE300E3F245A6EBADC300E4E2459
:060B1C005A6EB6DC120067
:100B2200CAEC05F0FFDE1ADF5FDF22DF040E0B6E78
:100B32000C0E0C6E330E0D6E0D2EFED70C2EFCD746
:100B42000B2EFAD70000000060DF040E0B6E0C0EB5
:100B52000C6E330E0D6E0D2EFED70C2EFCD70B2E07
:0A0B6200FAD700000000E1D7FFD72A
:100B940010EE16F0270E006E010E016E6C0EF66E4E
:0E0BA4000B0EF76E000EF86EA7EC04F01200B8
:020B6C00000087
:0D0B6E0054656D70657261747572613A00B6
:0C0B7B00556D69646164652041723A00A8
:0C0B8700556D69642E20536F6C6F3A00AE
:020000040030CA
:0E0000001B0E1F1EFF8381FF0FC00FE00F407D
:00000001FF
