:0400000089EF05F08F
:10000800F2A40FD0F294FF0ED66E7F0ED76E154A6B
:10001800162AB40E156E000E166E156A166A3C7016
:040028008C701100C7
:0E002C00026A016A006A086A036A000E120086
:10003A000B840BAE28EF00F0010E036E026A016A10
:0A004A00006A0A360232FF0E1200AF
:0C005400420E0D6E0D2EFED700001200B3
:0A0060000000000000000000120084
:10006A001D0E0C6E910E0D6E0D2EFED70C2EFCD7AA
:02007A00120072
:08007C000AAE029E000E120004
:0A0084001D0E0D6E0D2EFED71200AA
:10008E000B800BAE53EF00F0026A0AAEFF0E026E4B
:0C009E00016E006E0A360232FF0E1200E6
:1000AA000B820BAE5FEF00F003680268016800681C
:0800BA000A360232FF0E1200AB
:1000C2000C6A0E6A0250D8A47AEF00F001C002F066
:1000D20000C001F0006A0E860250D8A47AEF00F048
:1000E20001C002F0016A0E960E880250D8B48CEF5D
:1000F20000F00E50035ED8A4D8A091EF00F0D89083
:1001020002BE96EF00F0003601360236032E81EF72
:1001120000F091EF00F0010E0C6E87DF99EF00F016
:10012200020E0C6E89DF99EF00F0040E0C6EA5DF53
:020132001200B9
:100134005ABE02D0819801D081885ABC02D0819ADB
:1001440001D0818A5ABA02D0819C01D0818C5AB8DC
:1001540002D0819E01D0818E4CB002D0818401D026
:10016400819481867BDF81965AB602D0819801D032
:1001740081885AB402D0819A01D0818A5AB202D0BD
:10018400819C01D0818C5AB002D0819E01D0818E95
:100194004CB002D0818401D0819481865FDF819646
:0C01A4004CA002D060DF01D053DF12003D
:1001B0000134083609360450085E0550D8A0053CC5
:1001C000095E003601360F0E0C6E01340836093612
:1001D000045000A006D0085E0550D8A0053C095E7A
:1001E00005D008260550D8B0053C09260036013652
:1001F0000C2EEBD700B006D0045008260550D8B01E
:08020000053C09260000120074
:100208000B6A0350D8B44AEF01F002500A6E028E0E
:100218008E0E035E03AE4EEF01F0036C080E035C16
:10022800D8A029EF01F0036E013602C001F0026A7E
:10023800080E035CD8A029EF01F0036E0136016AAD
:100248000350D8A4D89033EF01F00350D8B433EF5B
:1002580001F0D89002320132032E2DEF01F00BBCD1
:1002680001A040EF01F0D8A040EF01F0012AD8B476
:10027800022A02BE5DEF01F00AAE62EF01F0021E33
:10028800011E012AD8B4022A62EF01F0026A016A4B
:1002980062EF01F00B800BAE66EF01F0026A0AAE66
:1002A80066EF01F0FF0E026E016E0A36023266EF4B
:1002B80001F0010E0C6EE7DE68EF01F0000E0C6E27
:1002C80068EF01F0FF0E0C6E0150006E0250016ED7
:0202D800120012
:1002DA000B6A0A6A096A00500402F4CF09F0F3CFE4
:1002EA0008F001500502F4CF0BF0F3CF0AF00050EA
:1002FA000502F3500926F4500A22E86A0B2201503B
:10030A000402F3500926F4500A22E86A0B2208C0B4
:10031A0000F009C001F00AC002F00BC003F012009D
:10032A00C26A070EC012C08E59C000F00036009093
:10033A00003600900050C212C2809FDEC282C2A262
:10034A0001D0FDD7C4CF01F0006AC3500012000EDD
:06035A000112C290120026
:10036000086A096A000E0762036435EF02F0025062
:1003700006180A6E075003267E0ED8A0C6EF01F0BD
:10038000035ED8B039EF02F0CAEF01F0035ED8A0E7
:100390003DEF02F0028E068E02C00EF001C00BF09F
:1003A00000C00DF000500402F4CF0CF00150050223
:1003B000F4CF00F0F3CF08F00402F3500C26F45011
:1003C0000822000E00220D500502F3500C26F450B6
:1003D0000822000E002202500402F3500826F450B6
:1003E000002202500502016A000E0122F35000268D
:1003F000F45001220D500602F3500826F45000225A
:10040000026A000E012202220B500602F35000265F
:10041000F4500122000E02220E500602F350012673
:10042000F450022202BE1DEF02F0083600360136FB
:1004300002360306D8B43DEF02F030EF02F0D88068
:10044000800E08640030000E002201220222D8A093
:1004500030EF02F0023201320032034A39EF02F08B
:100460000AAE029E000E3FEF02F0010EDFDD3FEF0D
:1004700002F0020E1ADE3FEF02F0040EDEDD120083
:0C0480004C9059C05AF056DE4C8012001F
:10048C00596A839E5E0E0C6E800E0D6E0D2EFED77D
:10049C000C2EFCD70000838E958E596A83AE09D042
:1004AC005950280806E3592A0000000000000000FB
:1004BC00F5D7596A83BE09D05950500806E3592A1A
:1004CC000000000000000000F5D7596A83AE09D087
:1004DC005950500806E3592A0000000000000000A3
:0604EC00F5D7839E12000B
:1004F20000C008F00150006E016A026A036A0B6ACA
:100502000C6A016A026A036A960E036E0A6A00AEF8
:1005120091EF02F0081E001E082AD8B4002A0A8EA3
:1005220000C001F008C000F0086A026AC9DD1200CA
:10053200FF0E486EFF0E496EFF0E4A6EFF0E4B6EA7
:0C054200C26A070EC012C08EC2801200F8
:10054E0093969394939E939C939A93988196819469
:10055E008198819A819C819E81DD80DD7FDD818CF9
:10056E00818E818676DD819679DD818672DD81963A
:10057E0075DD81866EDD819671DD819E818669DDF8
:10058E0081966CDD818665DD8196819C8188818670
:10059E0060DD819663DD8198818E81865ADD81963C
:1005AE00819E818656DD819659DD818652DD81964A
:1005BE00818E81864EDD819651DD819E818649DD5B
:1005CE0081968188818A818C818E818642DD819699
:0605DE0045DD4C80120017
:1005E400556A566A576A586A4FDF958E536A536A3A
:1005F40053500308D8A08FD0010E586E010E586EC8
:1006040058500808D8A074D083BE0AD0576A556AD7
:10061400566A542A54501E0802E2546A01D0F4D790
:1006240083AE1BD0554A562A800E5618006E800E93
:10063400005C02E1040E555C04E3575202E1010E32
:10064400576E800E006E800E5618005C02E1555005
:100654001E0802E2546A01D0E3D730D057B002D06A
:10066400479001D0478042D057B002D0479201D082
:1006740047823CD057B002D0479401D0478436D04B
:1006840057B002D0479601D0478630D057B002D039
:10069400479801D047882AD057B002D0479A01D052
:1006A400478A24D057B002D0479C01D0478C1ED033
:1006B40057B002D0479E01D0478E18D05850080A30
:1006C400CDE05850070AD0E05850060AD3E05850FD
:1006D400050AD6E05850040AD9E05850030ADCE071
:1006E4005850020ADFE05850010AE2E0582A88D73D
:1006F40053C000F0000E016E0036009001363F0E2C
:100704000024E16E000E0120E26E47C0E6FF000EF9
:10071400E66E532A6DD7959E838E5250010A0EE1E0
:100724003FC000F040C001F0640E046E000E056E80
:10073400D2DD415000264250012211D05250020A0B
:100744000EE143C000F044C001F0640E046E000EDC
:10075400056EC1DD455000264650012200D012002E
:100764000FD0800E526E19D0C00E526E16D0940E59
:10077400526E13D0D40E526E10D0800E526E0DD025
:100784005250010AEEE05250020AEEE05250030ABF
:10079400EEE05250040AEEE0F0D75304006E5250DB
:1007A400002600C052F04C8000C05AF0C1DC4C90CE
:0A07B40054C05AF0BDDC4C80120066
:1007BE00596AB4DD97DE000E046E000E056E480E0B
:0C07CE00066E7B0E076EC5DD18DD120004
:1007DA000450000A08E10550000A05E1FF0E006E08
:1007EA007F0E016E57D00D6A096A086A015000101F
:1007FA00D8B4000C015005180A6E0ABE0D1E0B6A09
:10080A0005AE05D0041E051E042AD8B4052A01AE79
:10081A0005D0001E011E002AD8B4012A0150051075
:10082A000A6E0ABE10D0BFDC0BB020D00DAE000C91
:10083A00001E011E002AD8B4012A081E091E082A11
:10084A00D8B4092A000C05AE0DD001BE07D001505C
:10085A00096E0050086E016A006AE8D7016A006AE8
:10086A00002A000C011E001E0B2ADDD7082AD8B464
:10087A00092A0450085CD8A4D9D70550095CD8A421
:10088A00D5D7096A086A002AD8B4012A01AECED798
:06089A000000FF0C12003B
:1008A0000FD0800E526E19D0C00E526E16D0940E1C
:1008B000526E13D0D40E526E10D0800E526E0DD0E8
:1008C0005250010AEEE05250020AEEE05250030A82
:1008D000EEE05250040AEEE0F0D75304006E52509E
:1008E000002600C052F000C05AF024DC4C90566A3A
:1008F00056505424E96E000E5520EA6EEE520BE07D
:1009000056505424E96E000E5520EA6EEECF59F091
:0A091000B7DD562AEDD74C80120027
:10091A00070EB46E0E0EC16EC26A06DEE00EF26EED
:10092A00720ED36E95908C909D80800ED56EFF0EC0
:08093A00D66E7F0ED76E12008D
:100942000900F5CFE6FF0006FBE10106F9E112001E
:10095200FDDD0C0E5A6E9AEC00F0010E5A6E9AEC06
:0409620000F012008F
:10096600020E526E3CDE00C04EF001C04FF0640E27
:10097600046E000E056E2EDF00C04EF001C04FF073
:100986000A0E046E000E056E25DF00C03DF00A0E4D
:10099600046E000E056E4EC000F04FC001F01ADF67
:1009A60008C000F009C001F000C03EF0010E526E12
:1009B600010E536E170E546E000E556E6EDF010E4D
:1009C600526E0E0E536E300E3D24546EC8DE300E3F
:0809D6003E24596E52DD1200AF
:1009DE00959E838E030E0B6E080E0C6E770E0D6EAB
:0E09EE000D2EFED70C2EFCD70B2EFAD71200C2
:1009FC00010E526EF1DD00C04EF001C04FF0D9DE99
:100A0C0000C050F001C051F03CA039D0640E046E0F
:100A1C00000E056E4EC000F04FC001F0D8DE00C0D5
:100A2C004EF001C04FF00A0E046E000E056ECFDEC4
:100A3C0000C03DF00A0E046E000E056E4EC000F0B4
:100A4C004FC001F0C4DE08C000F009C001F000C0C6
:100A5C003EF0020E526E010E536E240E546E000EBA
:100A6C00556E18DF020E526E0E0E536E300E3D2474
:100A7C00546E72DE300E3E24596EFCDC43D0640E94
:100A8C00046E000E056E50C000F051C001F09FDEE8
:100A9C0000C03DF00A0E046E000E056E50C000F052
:100AAC0051C001F094DE0A0E3D02F3CF02F0025069
:100ABC00005C3E6E0A0E046E000E056E50C000F017
:100ACC0051C001F084DE08C000F009C001F000C084
:100ADC004DF0020E526E010E536E300E546E000E1F
:100AEC00556ED8DE020E526E0D0E536E300E3D2436
:100AFC00546E32DE300E3E24596EBCDC300E4D246A
:060B0C00596EB8DC120076
:100B1200C2EC05F001DF1CDF61DF24DF040E0B6E87
:100B22000C0E0C6E330E0D6E0D2EFED70C2EFCD756
:100B32000B2EFAD70000000060DF040E0B6E0C0EC5
:100B42000C6E330E0D6E0D2EFED70C2EFCD70B2E17
:0A0B5200FAD700000000E1D7FFD73A
:100B840010EE15F0270E006E010E016E5C0EF66E6F
:0E0B94000B0EF76E000EF86EA1EC04F01200CE
:020B5C00000097
:0D0B5E0054656D70657261747572613A00C6
:0C0B6B00556D69646164652041723A00B8
:0C0B7700556D69642E20536F6C6F3A00BE
:020000040030CA
:0E0000001B0E1F1EFF8381FF0FC00FE00F407D
:00000001FF
