:1000000075B0FF75907775A00112007A75A0007524
:10001000B0FF75907775A00212007A75A00075B0D8
:10002000FF7590DA75A00412007A75A00075B033E0
:1000300075907775A00812007A75A00075B03075BC
:10004000907775A01012007A75A00075B033759086
:10005000EE75A02012007A75A00075B0FF7590773C
:1000600075A04012007A75A00075B0FF7590777585
:10007000A08012007A75A0008086780179197A3202
:07008000DAFED9FAD8F622DE
:00000001FF
