:020000040800F2
:1000000010040020DD010008B9010008BB01000850
:10001000BD010008BF010008C10100080000000088
:10002000000000000000000000000000C301000804
:10003000C501000800000000C7010008C901000850
:10004000F9010008FD01000801020008050200088E
:10005000090200080D02000811020008150200083C
:10006000190200081D0200082102000825020008EC
:10007000290200082D02000831020008350200089C
:10008000390200083D02000841020008450200084C
:10009000490200084D0200085102000855020008FC
:1000A000590200085D0200086102000865020008AC
:1000B000690200086D02000871020008750200085C
:1000C000790200087D02000881020008850200080C
:1000D000890200088D0200089102000895020008BC
:1000E000990200089D020008A10200080EE00268C3
:1000F0004368024408305FEAC37C44BF4B445B1E44
:1001000052F804CB43F804CB091FF9D150F8041B73
:100110000029ECD17047000010B507497944183127
:10012000064C7C44163404E00A68081D11448847D4
:100130000146A142F8D110BD0800000018000000DF
:10014000ADFFFFFF0C000000A40000000000002035
:100150000000000000F00DF8002801D0FFF7DCFFE0
:10016000AFF300800020AFF3008000F004F800F04F
:1001700003F801207047FEE700F000B80746384654
:1001800000F002F8FBE7000080B5AFF30080024A00
:1001900011001820ABBEFBE726000200054801460F
:1001A00003B4684680F30988AFF30080AFF30080A2
:1001B000FFF7D0FFA5EDF5FEFEE7FEE7FEE7FEE761
:1001C000FEE770477047704700F000B802494A6880
:1001D000087882184A607047000000200148804774
:1001E00001480047A50200089D0100080100000029
:1001F0000000000010000000FFF7FEBFFFF7FEBF89
:10020000FFF7FEBFFFF7FEBFFFF7FEBFFFF7FEBF22
:10021000FFF7FEBFFFF7FEBFFFF7FEBFFFF7FEBF12
:10022000FFF7FEBFFFF7FEBFFFF7FEBFFFF7FEBF02
:10023000FFF7FEBFFFF7FEBFFFF7FEBFFFF7FEBFF2
:10024000FFF7FEBFFFF7FEBFFFF7FEBFFFF7FEBFE2
:10025000FFF7FEBFFFF7FEBFFFF7FEBFFFF7FEBFD2
:10026000FFF7FEBFFFF7FEBFFFF7FEBFFFF7FEBFC2
:10027000FFF7FEBFFFF7FEBFFFF7FEBFFFF7FEBFB2
:10028000FFF7FEBFFFF7FEBFFFF7FEBFFFF7FEBFA2
:10029000FFF7FEBFFFF7FEBFFFF7FEBFFFF7FEBF92
:0802A000FFF7FEBF70470000EC
:040000050800019D51
:00000001FF
