:10000000A4EF03F00000000000EF00F0000000008B
:0A0010000000000000000000F3D71C
:10001C00560E0C6EB50E0D6E0D2EFED70C2EFCD79B
:06002C00000000001200BC
:0E003200C70E0D6E0D2EFED70000000012004E
:0E004000030E0D6E0D2EFED700000000120004
:10004E0040BE02D0819E01D0818E40BC02D0819CE8
:10005E0001D0818C40BA02D0819A01D0818A40B8F9
:10006E0002D0819801D0818815B002D0818401D050
:10007E0081948186DEDF819640B602D0819E01D0CA
:10008E00818E40B402D0819C01D0818C40B202D0CE
:10009E00819A01D0818A40B002D0819801D08188A6
:1000AE0015B002D0818401D081948186C2DF819601
:0C00BE0015A002D0ACDF01D0B5DF1200AD
:1000CA000134083609360450085E0550D8A0053CAC
:1000DA00095E003601360F0E0C6E013408360936F9
:1000EA00045000A006D0085E0550D8A0053C095E61
:1000FA0005D008260550D8B0053C09260036013639
:10010A000C2EEBD700B006D0045008260550D8B004
:08011A00053C0926000012005B
:10012200086A096A100E0C6E01340836093604504A
:10013200085E0550D8A0053C095ED8B007D004502F
:1001420008260550D8B0053C0926D890003601365D
:060152000C2EEAD712009A
:10015800086A080E0C6E003408360450085ED8B0E1
:0E01680002D00826D89000360C2EF5D71200D3
:100176000450000A08E10550000A05E1FF0E006E72
:100186007F0E016E57D00D6A096A086A0150001089
:10019600D8B4000C015005180A6E0ABE0D1E0B6A73
:1001A60005AE05D0041E051E042AD8B4052A01AEE4
:1001B60005D0001E011E002AD8B4012A01500510E0
:1001C6000A6E0ABE10D07EDF0BB020D00DAE000C3A
:1001D600001E011E002AD8B4012A081E091E082A7C
:1001E600D8B4092A000C05AE0DD001BE07D00150C7
:1001F600096E0050086E016A006AE8D7016A006A53
:10020600002A000C011E001E0B2ADDD7082AD8B4CE
:10021600092A0450085CD8A4D9D70550095CD8A48B
:10022600D5D7096A086A002AD8B4012A01AECED702
:060236000000FF0C1200A5
:10023C00939693949398939A939C939E819681947E
:10024C00819E819C819A8198E3DEE2DEE1DE818AE7
:10025C0081888186EFDE8196DBDE8186EBDE8196FE
:10026C00D7DE8186E7DE8196D3DE81988186E2DE59
:10027C008196CEDE8186DEDE8196819A818E8186A4
:10028C00D9DE8196C5DE819E81888186D3DE8196FA
:10029C0081988186CFDE8196BBDE8186CBDE81960E
:1002AC0081888186C7DE8196B3DE81988186C2DE25
:1002BC008196818E818C818A81888186BBDE819634
:0602CC00A7DE1580120000
:1002D2000B6A0A6A096A00500402F4CF09F0F3CFEC
:1002E20008F001500502F4CF0BF0F3CF0AF00050F2
:1002F2000502F3500926F4500A22E86A0B22015043
:100302000402F3500926F4500A22E86A0B2208C0BC
:1003120000F009C001F00AC002F00BC003F01200A5
:100322000FD0800E3D6E19D0C00E3D6E16D0940EC9
:100332003D6E13D0D40E3D6E10D0800E3D6E0DD0AA
:100342003D50010AEEE03D50020AEEE03D50030A44
:10035200EEE03D50040AEEE0F0D73E04006E3D5060
:10036200002600C03DF0158000C040F06FDE159001
:0A0372003FC040F06BDE1580120062
:0E037C00070EB46E0B0EC16E380EC06E12006E
:10038A0058DF0C0E406E5EDE010E406E5BDE120020
:10039A000900F5CFE6FF0006FBE10106F9E11200CC
:1003AA00336A040E335CD8B07FD03350010F3D6EF0
:1003BA00010E3E6E430E3F6EAFDF3350010F006EEB
:1003CA0000C03DF0020E3E6E300E00243F6EA4DFE8
:1003DA0033C000F0000E016E003600900136005066
:1003EA002F243B6E015030203C6E3BC0E9FF3CC0DD
:1003FA00EAFFEECF00F0EECF01F0640E046E000EBD
:10040A00056EB4DE00C039F001C03AF039C034F0EC
:10041A003BC0E9FF3CC0EAFFEECF00F0EECF01F0AF
:10042A000A0E046E000E056EA1DE0A0E3902F3CF23
:10043A0002F00250005C356E3BC0E9FF3CC0EAFFA7
:10044A00EECF00F0EECF01F00A0E046E000E056E3C
:10045A008DDE08C000F009C001F000C036F033504C
:10046A00010F3D6E040E3E6E300E34243F6E54DF93
:10047A003350010F3D6E050E3E6E300E35243F6E31
:10048A004BDF3350010F3D6E060E3E6E300E3624A2
:10049A003F6E42DF3350010F3D6E070E3E6E560E21
:1004AA003F6E3ADF332A7DD7336A040E335C68E243
:1004BA003350010F3D6E010E3E6E430E3F6E2CDF30
:1004CA003350010F006E00C03DF0020E3E6E300E3A
:1004DA0000243F6E21DF33502D243B6E000E2E2068
:1004EA003C6E3BC0E9FF3CC0EAFFEECF00F0640E71
:1004FA00046E2DDE00C039F039C034F03BC0E9FF8C
:10050A003CC0EAFFEECF00F00A0E046E20DE0A0EAF
:10051A003902F3CF01F00150005C356E3BC0E9FFB0
:10052A003CC0EAFFEECF00F00A0E046E10DE08C0EF
:10053A0000F000C036F03350010F3D6E090E3E6EDA
:10054A00300E34243F6EE8DE3350010F3D6E0A0E42
:10055A003E6E300E35243F6EDFDE3350010F3D6EA6
:10056A000B0E3E6E300E36243F6ED6DE3350010F30
:10057A003D6E0C0E3E6E560E3F6ECEDE332A95D77A
:10058A00336A040E335CD8B0CFD03350010F3D6EBE
:10059A00010E3E6E430E3F6EBFDE3350010F006EFA
:1005AA0000C03DF0020E3E6E300E00243F6EB4DEF7
:1005BA0033C000F0000E016E003600900136005084
:1005CA0031243B6E015032203C6E3BC0E9FF3CC0F7
:1005DA00EAFFEECF00F0EECF01F0100E046E270E08
:1005EA00056E9ADD00C039F001C03AF039C034F026
:1005FA003BC0E9FF3CC0EAFFEECF00F0EECF01F0CE
:10060A00E80E046E030E056E87DD0A0E3902F3CF7B
:10061A0002F00250005C396E39C035F03BC0E9FF88
:10062A003CC0EAFFEECF00F0EECF01F0640E046E9C
:10063A00000E056E71DD640E3402F3CF03F00A0E6C
:10064A003902F3CF02F0035002260250005C396EE1
:10065A0039C036F03BC0E9FF3CC0EAFFEECF00F0FC
:10066A00EECF01F00A0E046E000E056E55DDE80E9F
:10067A003402F3CF03F0640E3502F3CF02F00250D6
:10068A0003260A0E3902F3CF02F003500226025063
:10069A00005C376E3BC0E9FF3CC0EAFFEECF00F0DA
:1006AA00EECF01F00A0E046E000E056E35DD08C0AD
:1006BA0000F009C001F000C038F03350010F3D6E60
:1006CA000E0E3E6E300E34243F6E26DE3350010F7E
:1006DA003D6E0F0E3E6E300E35243F6E1DDE3350DA
:1006EA00010F3D6E100E3E6E300E36243F6E14DE44
:1006FA003350010F3D6E110E3E6E300E37243F6EA1
:10070A000BDE3350010F3D6E120E3E6E300E382452
:10071A003F6E02DE3350010F3D6E130E3E6E570ED2
:0A072A003F6EFADD332A2DD71200CE
:100734002DC000F0000E016E2EC004F02FC005F095
:04074400C6DD1200FC
:100748007B0E166ED20E176E840E186ED50E196EAD
:10075800DC0E1A6E000E1B6EDC0E1C6E000E1D6E7B
:10076800DC0E1E6E000E1F6EDC0E206E000E216E5B
:10077800226A236A246A256A266A276A286A296AF5
:10078800F9DDFFDD2A6A040E2A5C2CE22AC000F09B
:10079800000E016E003600900136220E00242B6EEA
:1007A800000E01202C6E160EE96E000EEA6E2A501D
:1007B800E926D8B0EA2AEECF2DF01A0E0024E96E09
:1007C800000E0120EA6EEECF2EF0EECF2FF0AEDF56
:1007D8002BC0E1FF2CC0E2FF00C0E6FF01C0E6FF2E
:1007E8002A2AD1D7160E2D6E000E2E6E1A0E2F6ED7
:1007F800000E306E220E316E000E326ED2DDC2D780
:02080800FFD718
:04080A007BD284D544
:08080E00DC00DC00DC00DC0072
:080816000000000000000000DA
:020000040030CA
:0E000000230E1F1EFF8381FF0FC00FE00F4075
:00000001FF
