:10000000F5EF06F00000000000EF00F00000000037
:0A0010000000000000000000F3D71C
:0E001C00C70E0D6E0D2EFED700000000120064
:10002A00560E0C6EB50E0D6E0D2EFED70C2EFCD78D
:06003A00000000001200AE
:0E004000030E0D6E0D2EFED700000000120004
:0E004E00026A016A006A086A036A000E120064
:08005C000AAE029E000E120024
:100064000B840BAE3DEF00F0010E036E026A016AD1
:0A007400006A0A360232FF0E120085
:10007E000C6A0E6A0250D8A458EF00F001C002F0CC
:10008E0000C001F0006A0E860250D8A458EF00F0AE
:10009E0001C002F0016A0E960E880250D8B46AEFC3
:1000AE0000F00E50035ED8A4D8A06FEF00F0D890E9
:1000BE0002BE74EF00F0003601360236032E5FEFFB
:1000CE0000F06FEF00F0010E0C6EBADF77EF00F06C
:1000DE00020E0C6EC0DF77EF00F0040E0C6EB7DF71
:0200EE001200FE
:0800F0000B6A0B86FF0E1200E3
:1000F8000134083609360450085E0550D8A0053C7E
:10010800095E003601360F0E0C6E013408360936CA
:10011800045000A006D0085E0550D8A0053C095E32
:1001280005D008260550D8B0053C0926003601360A
:100138000C2EEBD700B006D0045008260550D8B0D6
:08014800053C0926000012002D
:100150000B800BAEB4EF00F0026A0AAEFF0E026E27
:0C016000016E006E0A360232FF0E120023
:10016C000B820BAEC0EF00F00368026801680068F8
:08017C000A360232FF0E1200E8
:1001840041BE02D0819E01D0818E41BC02D0819CAF
:1001940001D0818C41BA02D0819A01D0818A41B8C0
:1001A40002D0819801D0818816B002D0818401D018
:1001B4008194818643DF819641B602D0819E01D02D
:1001C400818E41B402D0819C01D0818C41B202D095
:1001D400819A01D0818A41B002D0819801D081886E
:1001E40016B002D0818401D08194818627DF819664
:0C01F40016A002D018DF01D00FDF1200AF
:0E020000570E0D6E0D2EFED7000000001200EE
:10020E000B6A0A6A096A00500402F4CF09F0F3CFB0
:10021E0008F001500502F4CF0BF0F3CF0AF00050B6
:10022E000502F3500926F4500A22E86A0B22015007
:10023E000402F3500926F4500A22E86A0B2208C081
:10024E0000F009C001F00AC002F00BC003F012006A
:10025E00086A096A100E0C6E01340836093604500D
:10026E00085E0550D8A0053C095ED8B007D00450F2
:10027E0008260550D8B0053C0926D8900036013620
:06028E000C2EEAD712005D
:10029400086A080E0C6E003408360450085ED8B0A4
:0E02A40002D00826D89000360C2EF5D7120096
:1002B200C26A151C006E0050C116070EC012C08E15
:1002C2003EC000F000360090003600900050C2128E
:1002D200C28095DFC282C2A201D0FDD7C4CF01F095
:0E02E200006AC3500012000E0112C2901200FA
:1002F000086A096A000E07620364FDEF01F002500C
:1003000006180A6E075003267E0ED8A08EEF01F065
:10031000035ED8B001EF02F092EF01F0035ED8A0C7
:1003200005EF02F0028E068E02C00EF001C00BF047
:1003300000C00DF000500402F4CF0CF00150050293
:10034000F4CF00F0F3CF08F00402F3500C26F45081
:100350000822000E00220D500502F3500C26F45026
:100360000822000E002202500402F3500826F45026
:10037000002202500502016A000E0122F3500026FD
:10038000F45001220D500602F3500826F4500022CA
:10039000026A000E012202220B500602F3500026D0
:1003A000F4500122000E02220E500602F3500126E4
:1003B000F450022202BEE5EF01F0083600360136A5
:1003C00002360306D8B405EF02F0F8EF01F0D8804A
:1003D000800E08640030000E002201220222D8A004
:1003E000F8EF01F0023201320032034A01EF02F06D
:1003F0000AAE029E000E07EF02F0010E28DE07EFA4
:1004000002F0020EB3DE07EF02F0040E2BDE120044
:1004100000C008F00150006E016A026A036A0B6AAC
:100420000C6A016A026A036A960E036E0A6A00AEDB
:1004300020EF02F0081E001E082AD8B4002A0A8EF7
:1004400000C001F008C000F0086A026A18DE12005D
:100450000450000A08E10550000A05E1FF0E006E95
:100460007F0E016E57D00D6A096A086A01500010AC
:10047000D8B4000C015005180A6E0ABE0D1E0B6A96
:1004800005AE05D0041E051E042AD8B4052A01AE07
:1004900005D0001E011E002AD8B4012A0150051003
:1004A0000A6E0ABE10D028DE0BB020D00DAE000CB4
:1004B000001E011E002AD8B4012A081E091E082A9F
:1004C000D8B4092A000C05AE0DD001BE07D00150EA
:1004D000096E0050086E016A006AE8D7016A006A76
:1004E000002A000C011E001E0B2ADDD7082AD8B4F2
:1004F000092A0450085CD8A4D9D70550095CD8A4AF
:10050000D5D7096A086A002AD8B4012A01AECED725
:060510000000FF0C1200C8
:100516000450000A12E10550000A0FE10650000AD5
:100526000CE10750000A09E1FF0E006EFF0E016E96
:100536007F0E026EFF0E036EA4D0086A096A07508A
:10054600D8B436EF03F00350D8B43AEF03F00250B4
:1005560006180A6E028E068E0E6A02C008F001C0E8
:100566000CF000C00DF004500D5E0550D8A0053CFF
:100576000C5E0650D8A0063C085E086A0C6A0D6A36
:10058600D8A0CDEF02F0D890023201320032083204
:10059600010E0E6E0750035ED8A0DAEF02F07E0E53
:1005A6000E240326D8B03EEF03F0E0EF02F07E0EF5
:1005B6000E240326D8A042EF03F0180E0B6E0D365C
:1005C6000C3608360036013602360E360450005E0A
:1005D6000550D8A0053C015E0650D8A0063C025E38
:1005E60006340E120EA0FBEF02F00D8006EF03F0AC
:1005F600045000260550D8B0053C01260650D8B058
:10060600062802260D900B2EE2EF02F02CEF03F0E7
:10061600D8900036013602360E360450005E05507C
:10062600D8A0053C015E0650D8A0063C025E063402
:100636000E10010B0D26D8B00C2AD8B4082AD8A45F
:100646002CEF03F008320C320D32032AD8B43EEFF9
:1006560003F00AAE089E0850026E0C50016E0D5053
:10066600006E44EF03F0010E40DD44EF03F0020E8E
:10067600EBDC44EF03F0040E76DD44EF03F0080EE6
:04068600EEDC120094
:10068A000B6A0350D8B48BEF03F002500A6E028E45
:10069A008E0E035E03AE8FEF03F0036C080E035C4D
:1006AA00D8A06AEF03F0036E013602C001F0026AB5
:1006BA00080E035CD8A06AEF03F0036E0136016AE4
:1006CA000350D8A4D89074EF03F00350D8B474EF51
:1006DA0003F0D89002320132032E6EEF03F00BBC06
:1006EA0001A081EF03F0D8A081EF03F0012AD8B46A
:1006FA00022A02BE9EEF03F00AAEA3EF03F0021E27
:10070A00011E012AD8B4022AA3EF03F0026A016A81
:10071A00A3EF03F00B800BAEA7EF03F0026A0AAE59
:10072A00A7EF03F0FF0E026E016E0A360232A7EF40
:10073A0003F0010E0C6E07DDA9EF03F0000E0C6E3C
:10074A00A9EF03F0FF0E0C6E0150006E0250016E0D
:02075A0012008B
:10075C00939693949398939A939C939E8196819459
:10076C00819E819C819A81985ADC59DC58DC818A63
:10077C00818881865FDC819652DC81865BDC819688
:10078C004EDC818657DC81964ADC8198818652DC6E
:10079C00819645DC81864EDC8196819A818E81869C
:1007AC0049DC81963CDC819E8188818643DC819684
:1007BC00819881863FDC819632DC81863BDC819698
:1007CC008188818637DC81962ADC8198818632DCAF
:1007DC008196818E818C818A818881862BDC8196A1
:0607EC001EDC1680120065
:1007F2000FD0800E3E6E19D0C00E3E6E16D0940EF3
:100802003E6E13D0D40E3E6E10D0800E3E6E0DD0D2
:100812003E50010AEEE03E50020AEEE03E50030A6C
:10082200EEE03E50040AEEE0F0D73F04006E3E5088
:10083200002600C03EF0168000C041F0A2DC1690F7
:0A08420040C041F09EDC1680120059
:10084C0087DF0C0E416E98DC010E416E95DC1200B8
:0E085C00070EB46E070EC16E380EC06E12008D
:10086A000900F5CFE6FF0006FBE10106F9E11200F7
:10087A00346A040E345CD8B07FD03450010F3E6E17
:10088A00010E3F6E430E406EAFDF3450010F006E13
:10089A0000C03EF0020E3F6E300E0024406EA4DF10
:1008AA0034C000F0000E016E003600900136005090
:1008BA0030243C6E015031203D6E3CC0E9FF3DC002
:1008CA00EAFFEECF00F0EECF01F0640E046E000EE8
:1008DA00056EB9DD00C03AF001C03BF03AC035F010
:1008EA003CC0E9FF3DC0EAFFEECF00F0EECF01F0D9
:1008FA000A0E046E000E056EA6DD0A0E3A02F3CF4A
:10090A0002F00250005C366E3CC0E9FF3DC0EAFFCF
:10091A00EECF00F0EECF01F00A0E046E000E056E67
:10092A0092DD08C000F009C001F000C037F0345071
:10093A00010F3E6E040E3F6E300E3524406E54DFBA
:10094A003450010F3E6E050E3F6E300E3624406E57
:10095A004BDF3450010F3E6E060E3F6E300E3724C9
:10096A00406E42DF3450010F3E6E070E3F6E560E48
:10097A00406E3ADF342A7DD7346A040E345C68E26A
:10098A003450010F3E6E010E3F6E430E406E2CDF57
:10099A003450010F006E00C03EF0020E3F6E300E62
:1009AA000024406E21DF34502E243C6E000E2F208E
:1009BA003D6E3CC0E9FF3DC0EAFFEECF00F0640E99
:1009CA00046E63DC00C03AF03AC035F03CC0E9FF7F
:1009DA003DC0EAFFEECF00F00A0E046E56DC0A0EA6
:1009EA003A02F3CF01F00150005C366E3CC0E9FFD9
:1009FA003DC0EAFFEECF00F00A0E046E46DC08C0E6
:100A0A0000F000C037F03450010F3E6E090E3F6E01
:100A1A00300E3524406EE8DE3450010F3E6E0A0E69
:100A2A003F6E300E3624406EDFDE3450010F3E6ECC
:100A3A000B0E3F6E300E3724406ED6DE3450010F57
:100A4A003E6E0C0E3F6E410E406ECEDE342A95D7B6
:100A5A00346A040E345CD8B0D4D03450010F3E6EE0
:100A6A00010E3F6E430E406EBFDE3450010F006E22
:100A7A0000C03EF0020E3F6E300E0024406EB4DE1F
:100A8A0034C000F0000E016E0036009001360050AE
:100A9A0032243C6E015033203D6E3CC0E9FF3DC01C
:100AAA00EAFFEECF00F0EECF01F0100E046E270E33
:100ABA00056E2FEC01F000C03AF001C03BF03AC0DD
:100ACA0035F03CC0E9FF3DC0EAFFEECF00F0EECFC3
:100ADA0001F0E80E046E030E056E2FEC01F00A0E0B
:100AEA003A02F3CF02F00250005C3A6E3AC036F096
:100AFA003CC0E9FF3DC0EAFFEECF00F0EECF01F0C7
:100B0A00640E046E000E056E2FEC01F0640E3502C1
:100B1A00F3CF03F00A0E3A02F3CF02F00350022693
:100B2A000250005C3A6E3AC037F03CC0E9FF3DC063
:100B3A00EAFFEECF00F0EECF01F00A0E046E000ECF
:100B4A00056E2FEC01F0E80E3502F3CF03F0640EC8
:100B5A003602F3CF02F0025003260A0E3A02F3CF0E
:100B6A0002F0035002260250005C386E3CC0E9FFD6
:100B7A003DC0EAFFEECF00F0EECF01F00A0E046EA0
:100B8A00000E056E2FEC01F008C000F009C001F05C
:100B9A0000C039F03450010F3E6E0E0E3F6E300E1B
:100BAA003524406E21DE3450010F3E6E0F0E3F6E2B
:100BBA00300E3624406E18DE3450010F3E6E100E91
:100BCA003F6E300E3724406E0FDE3450010F3E6EFA
:100BDA00110E3F6E300E3824406E06DE3450010F7F
:100BEA003E6E120E3F6E300E3924406EFDDD3450DB
:100BFA00010F3E6E130E3F6E570E406EF5DD342A1E
:040C0A0028D71200D5
:100C0E002EC000F0000E016E2FC004F030C005F0B3
:060C1E0007EC01F01200DA
:100C2400306A316A520E326EB80E336E1E0E346E56
:100C3400800E356E000E366E000E376E5C0E386E0A
:100C4400860E396E2F6AFE0E2F5C11E2030E2E24DF
:100C54003E6E59EC01F0800E3118026E800E0118C0
:100C6400025C02E10050305C00E22F2AECD730C075
:100C740000F031C001F008EC02F0000E046E000E2A
:100C8400056E200E066E770E076E78EC01F000C03C
:100C94003AF001C03BF002C03CF003C03DF032C06A
:100CA40004F033C005F034C006F035C007F036C098
:100CB40000F037C001F038C002F039C003F029DC7D
:100CC4003AC004F03BC005F03CC006F03DC007F05C
:080CD40078EC01F0D8DC1200FD
:100CDC00336A346A000E356E040E366E376A386A23
:100CEC00316A326A000E325C02E1FE0E315C27E2A0
:100CFC002E043E6E59EC01F000C037F001C038F004
:100D0C00800E3418026E800E0118025C02E1005055
:100D1C00335C04E237C033F038C034F0800E38183E
:100D2C00006E800E3618005C02E13550375C04E230
:100D3C0037C035F038C036F0314A322AD3D7355067
:100D4C00335C006E36503458016E08EC02F0D80E4D
:100D5C00046E640E056E0D0E066E7C0E076E78EC3E
:100D6C0001F08DDC08EC02F0F40E046EFD0E056E45
:100D7C00340E066E7E0E076E78EC01F080DC00C03F
:100D8C002FF001C030F000C002F001C003F00236B9
:100D9C000290033602C02FF003C030F0800E03180F
:100DAC00006E800E005C02E1000E025C06E22F5029
:100DBC0000082F6E3050000E3056800E006E800EE4
:100DCC003018005C02E12F50640804E2640E2F6EB0
:0E0DDC00000E306E2FC000F030C001F012008B
:100DEA0087EC07F0176A186A196A1A6A1B6A1C6A7A
:100DFA001D6A1E6A1F6A206A216A226A236A246A95
:100E0A00256A266A276A286A296A2A6A22DD19DD7A
:100E1A00010E2E6E5EDF00C017F0020E2E6E59DF35
:100E2A0000C018F0030E2E6E54DF00C019F0040E35
:100E3A002E6E4FDF00C01AF0010E2E6EEEDE00C0DD
:100E4A001BF001C01CF0020E2E6EE7DE00C01DF082
:100E5A0001C01EF0030E2E6EE0DE00C01FF001C0BE
:100E6A0020F0040E2E6ED9DE00C021F001C022F05F
:100E7A002B6A040E2B5C2CE22BC000F0000E016ED4
:100E8A00003600900136230E00242C6E000E01203D
:100E9A002D6E170EE96E000EEA6E2B50E926D8B0B9
:100EAA00EA2AEECF2EF01B0E0024E96E000E012076
:100EBA00EA6EEECF2FF0EECF30F0A4DE2CC0E1FFC9
:100ECA002DC0E2FF00C0E6FF01C0E6FF2B2AD1D702
:100EDA00170E2E6E000E2F6E1B0E306E000E316E28
:0E0EEA00230E326E000E336EC3DC92D7FFD79C
:100F0E0010EE15F0010E006E010E016E0C0EF66E57
:0E0F1E000F0EF76E000EF86E35EC04F01200A8
:040EF80000000000F6
:080EFC000000000000000000EE
:080F04000000000000000000E5
:010F0C0030B4
:020000040030CA
:0E000000230E1F1EFF8381FF0FC00FE00F4075
:00000001FF
