:04000000B8EF10F055
:1000080000C015F0F2A41ED0F2949E0ED76E580EC2
:10001800D66E00016B73354A362A414A422A000ED1
:10002800361802E1040E351803E16679356A366A36
:10003800000E421802E1500E411804E100016677F3
:10004800416A426A9EA210D09E924050000A02E184
:100058008A940AD08AA404D040C0CCFF8A9404D0E1
:0E0068004050FF08CC6E8A8415C000F01100D5
:0C007600420E0D6E0D2EFED70000120091
:100082001D0E0C6E910E0D6E0D2EFED70C2EFCD792
:0200920012005A
:0A0094000000000000000000120050
:10009E000B840BAE5AEF00F0010E036E026A016A7A
:0A00AE00006A0A360232FF0E12004B
:1000B80000018FBF02D0839E01D0838E8FBD02D0F6
:1000C800839C01D0838C8FBB02D0839A01D0838A12
:1000D8008FB902D0839801D0838866BB02D083840D
:1000E80001D083948386D2DF83968FB702D0839E14
:1000F80001D0838E8FB502D0839C01D0838C8FB3BF
:1001080002D0839A01D0838A8FB102D0839801D01C
:10011800838866BB02D0838401D083948386B6DF4C
:0E012800839666AB02D0A9DF01D0A1DF1200E2
:0E013600026A016A006A086A036A000E12007B
:080144000AAE029E000E12003B
:10014C000B820BAEB0EF00F0036802680168006828
:08015C000A360232FF0E120008
:100164000D6A086A0050D8B4000C04180A6E0ABE5E
:100174000D1E0B6A04AE02D0041E042A00AE02D087
:10018400001E002A005004100A6E0ABE1FD004503C
:10019400085E003600340836045008260036060E81
:1001A4000C6E00340836045000B0085E00A0082627
:1001B40000360C2EF6D700A008260BB015D00DAED5
:1001C400000C001E002A081E082A000C04AE09D0E8
:1001D40000BE04D00050086E006AF1D7006A002AFD
:1001E400000C001E0B2AD3D7082A0450085CD8A49C
:0E01F400E6D7086A002A00AEE2D7FF0C120020
:10020200086A096A000E0762036486EF01F0025071
:1002120006180A6E075003267E0ED8A017EF01F0CB
:10022200035ED8B08AEF01F01BEF01F0035ED8A0A5
:100232008EEF01F0028E068E02C00EF001C00BF0AE
:1002420000C00DF000500402F4CF0CF00150050282
:10025200F4CF00F0F3CF08F00402F3500C26F45070
:100262000822000E00220D500502F3500C26F45015
:100272000822000E002202500402F3500826F45015
:10028200002202500502016A000E0122F3500026EC
:10029200F45001220D500602F3500826F4500022B9
:1002A200026A000E012202220B500602F3500026BF
:1002B200F4500122000E02220E500602F3500126D3
:1002C200F450022202BE6EEF01F00836003601360B
:1002D20002360306D8B48EEF01F081EF01F0D88028
:1002E200800E08640030000E002201220222D8A0F3
:1002F20081EF01F0023201320032034A8AEF01F04B
:100302000AAE029E000E90EF01F0010E13DF90EF95
:1003120001F0020E1ADF90EF01F0040EBFDE1200B0
:0E0322000001669B8BC08FF0C6DE668B12005A
:1003300010D0800E00018B6F1AD0C00E8B6F17D0BB
:10034000940E8B6F14D0D40E8B6F11D0800E8B6FE8
:100350000ED000018B51010AECE08B51020AEDE056
:100360008B51030AEDE08B51040AEDE0EFD78C05C9
:10037000006E8B51002600C08BF0668B00C08FF0A2
:0E0380009BDE669B8DC08FF097DE668B1200B1
:10038E000134083609360450085E0550D8A0053CE5
:10039E00095E003601360F0E0C6E01340836093632
:1003AE00045000A006D0085E0550D8A0053C095E9A
:1003BE0005D008260550D8B0053C09260036013672
:1003CE000C2EEBD700B006D0045008260550D8B03E
:0803DE00053C09260000120095
:1003E6008BC004F08CC005F004C002F005C003F019
:1003F600044A052A8DC000F08EC001F000018D4B25
:100406008E2B00C0E9FF01C0EAFF02C0E1FF03C076
:10041600E2FFEECFE6FF02C0E9FF03C0EAFFEE52BD
:0E04260001E0E2D78BC000F08CC001F01200A4
:100434000CB05CEF02F00CA202EF03F00E6A000EA7
:10044400026473EF02F0F00E0214D8A43EEF02F03F
:10045400023A01380F0B02260138F00B016E003806
:100464000F0B01260038F00B006E08380F0B002626
:100474000838F00B086E0E84D89002BE57EF02F0D5
:1004840008360036013602360E2A02BE57EF02F055
:1004940008360036013602360E2A02BE57EF02F045
:1004A40008360036013602360E2A0E500364F8EF81
:1004B40002F0035E0BBC08AEFDEF02F0D880800EA4
:1004C40008640030000E002201220222D8A0FDEFB1
:1004D40002F0023201320032034A02EF03F0FDEF70
:1004E40002F001C002F000C001F008C000F0086A88
:1004F400000E0E860264AAEF02F0F00E0214D8A4D5
:1005040092EF02F0023A01380F0B02260138F00B89
:10051400016E00380F0B01260038F00B006E0E84BC
:10052400D89002BE57EF02F00036013602360E2A8A
:1005340002BE57EF02F00036013602360E2A02BE22
:1005440057EF02F00036013602360E2A57EF02F05A
:1005540001C002F000C001F0006A000E0E960E8881
:100564000264D7EF02F0F00E0214D8A4C2EF02F036
:10057400023A01380F0B02260138F00B016E0E848B
:10058400D89002BE57EF02F0013602360E2A02BEA0
:1005940057EF02F0013602360E2A02BE57EF02F080
:1005A400013602360E2A57EF02F001C002F0016A4A
:1005B400000E0E86026407EF03F0F00E0214D8A4B6
:1005C400E6EF02F0023A0E84D89002BE57EF02F032
:1005D40002360E2A02BE57EF02F002360E2A02BE7F
:1005E40057EF02F002360E2A57EF02F0010E0C6E9E
:1005F40054DD0AEF03F0020E0C6EA2DD0AEF03F0E5
:10060400040E0C6EA1DD0AEF03F0080E0C6E91DDF2
:020614001200D2
:0A0616001D0E0D6E0D2EFED7120012
:100620000A6A0350D8A40A800750D8A40A820A5044
:10063000D8B473EF03F0030AD8B42CEF03F00AB078
:1006400027EF03F006AE71EF03F06FEF03F002AE99
:100650006FEF03F071EF03F00250800B0A6E029E01
:100660000650800B069E0A18D8B43DEF03F00A50DE
:10067000D8B46FEF03F071EF03F00750035CD8B408
:1006800047EF03F0D8A063EF03F069EF03F00650E3
:10069000025CD8B451EF03F0D8A063EF03F069EF28
:1006A00003F00550015CD8B45BEF03F0D8A063EF12
:1006B00003F069EF03F00450005CD8B473EF03F06B
:1006C000D8B069EF03F00A52D8B471EF03F06FEFBE
:1006D00003F00A52D8B46FEF03F071EF03F0D88043
:0E06E0001200D8901200D880D88412001200A8
:1006EE000450000A08E10550000A05E1FF0E006EF5
:1006FE007F0E016E57D00D6A096A086A015000100C
:10070E00D8B4000C015005180A6E0ABE0D1E0B6AF5
:10071E0005AE05D0041E051E042AD8B4052A01AE66
:10072E0005D0001E011E002AD8B4012A0150051062
:10073E000A6E0ABE10D024DE0BB020D00DAE000C17
:10074E00001E011E002AD8B4012A081E091E082AFE
:10075E00D8B4092A000C05AE0DD001BE07D0015049
:10076E00096E0050086E016A006AE8D7016A006AD5
:10077E00002A000C011E001E0B2ADDD7082AD8B451
:10078E00092A0450085CD8A4D9D70550095CD8A40E
:10079E00D5D7096A086A002AD8B4012A01AECED785
:0607AE000000FF0C120028
:1007B400C26A301C006E0050C116070EC012C08EF3
:1007C4007DC000F000360090003600900050C21248
:1007D400C2801FDFC282C2A201D0FDD7C4CF01F004
:0E07E400006AC3500012000E0112C2901200F3
:1007F20000017D5307E0010E8F6F5DDC020E8F6FEB
:060802005ADC7D6B1200C0
:100808000C6A0E6A0250D8A41DEF04F001C002F071
:1008180000C001F0006A0E860250D8A41DEF04F053
:1008280001C002F0016A0E960E880250D8B42FEF6C
:1008380004F00E50035ED8A4D8A034EF04F0D8908A
:1008480002BE39EF04F0003601360236032E24EFDB
:1008580004F034EF04F0010E0C6E69DC3CEF04F098
:10086800020E0C6E18DC3CEF04F0040E0C6E66DC15
:0208780012006C
:08087A000B6A0B86FF0E120051
:100882000B800BAE4DEF04F0026A0AAEFF0E026E51
:0C089200016E006E0A360232FF0E1200EA
:10089E00025006180E6E086A096A0B6A0350076446
:1008AE0042EF05F006500A6E068E028E03500B6E56
:1008BE000750036E000E0B6492EF04F00B50075EB0
:1008CE00D8B433EF05F0070E076401EF05F0075EAD
:1008DE0000C008F001C000F002C001F0026A074E2D
:1008EE0033EF05F00764D6EF04F0075E00C008F0A2
:1008FE0001C000F0016A074E33EF05F00764B4EF54
:10090E0004F0075E00C008F0006A074E33EF05F0F2
:10091E0007649BEF04F00AC002F005C001F004C0AA
:10092E0000F0086A5FEF06F0030E0764A6EF04F00E
:10093E00075E08380F0B086E074E33EF05F0D890A0
:10094E000832074E33EF05F0D8900832074E33EFDA
:10095E0005F0D890083233EF05F0030E0764C5EFAB
:10096E0004F0075E08380F0B086E0038F00B0826EF
:10097E0000380F0B006E074E33EF05F0D8900032A3
:10098E000832074E33EF05F0D89000320832074E8A
:10099E0033EF05F0D8900032083233EF05F0030E36
:1009AE000764EDEF04F0075E08380F0B086E003891
:1009BE00F00B082600380F0B006E0138F00B0026E6
:1009CE0001380F0B016E074E33EF05F0D890013250
:1009DE0000320832074E33EF05F0D8900132003264
:1009EE000832074E33EF05F0D8900132003208324C
:1009FE0033EF05F0030E07641EEF05F0075E0838AF
:100A0E000F0B086E0038F00B082600380F0B006E27
:100A1E000138F00B002601380F0B016E0238F00B77
:100A2E00012602380F0B026E074E33EF05F0D890F9
:100A3E000232013200320832074E33EF05F0D89001
:100A4E000232013200320832074E33EF05F0D890F1
:100A5E000232013200320832096A000E0EAE27EF62
:100A6E0006F0081E001E011E021E082A0022012288
:100A7E00022227EF06F00750D8A448EF05F05FEFEB
:100A8E0006F0096A02C00AF0028E068E0750035C59
:100A9E00076ED8B41AEF06F0070E0764E8EF05F0FC
:100AAE00075E0450096E0550046E0650056E066A08
:100ABE00074E1AEF06F0070E0764BDEF05F0075E4E
:100ACE000450096E0550046E056A074E1AEF06F0C3
:100ADE00070E07649BEF05F0075E0450096E046A6B
:100AEE00074E1AEF06F0070E076482EF05F00AC0F4
:100AFE0002F05FEF06F0030E07648DEF05F0075E60
:100B0E0009380F0B096E074E1AEF06F0D89009320E
:100B1E00074E1AEF06F0D8900932074E1AEF06F07C
:100B2E00D89009321AEF06F0030E0764ACEF05F009
:100B3E00075E09380F0B096E0438F00B09260438CE
:100B4E000F0B046E074E1AEF06F0D89004320932DE
:100B5E00074E1AEF06F0D89004320932074E1AEFFC
:100B6E0006F0D890043209321AEF06F0030E07642D
:100B7E00D4EF05F0075E09380F0B096E0438F00B41
:100B8E00092604380F0B046E0538F00B04260538C1
:100B9E000F0B056E074E1AEF06F0D8900532043291
:100BAE000932074E1AEF06F0D89005320432093298
:100BBE00074E1AEF06F0D8900532043209321AEFBA
:100BCE0006F0030E076405EF06F0075E09380F0BFB
:100BDE00096E0438F00B092604380F0B046E053825
:100BEE00F00B042605380F0B056E0638F00B0526A4
:100BFE0006380F0B066E074E1AEF06F0D890063227
:100C0E00053204320932074E1AEF06F0D89006323A
:100C1E00053204320932074E1AEF06F0D89006322A
:100C2E00053204320932086A000E0EAE27EF06F0C6
:100C3E00091E041E051E061E092A0422052206226E
:100C4E0009500826045000220550012206500222A7
:100C5E000EBE3EEF06F0D8A04DEF06F00232013286
:100C6E0000320832033E4DEF06F059EF06F0D8B0D1
:100C7E0053EF06F0000E081E001E011E021E082A6B
:100C8E000022012202220A7E53EF06F0010E0C6EA4
:100C9E001AEC02F061EF06F0020E0C6E1AEC02F086
:100CAE0061EF06F0040E0C6EA6EC00F061EF06F09C
:060CBE00000E0C6E120096
:100CC400010E00018B6F010E8C6F500E8D6F98EC2E
:100CD40001F0570E8B6F91EC01F04D0E8B6F91EC80
:100CE40001F03A0E8B6F91EC01F0020E8B6F010E46
:100CF4008C6F540E8D6F98EC01F04D0E8B6F91EC50
:100D040001F0500E8B6F91EC01F03A0E8B6F91EC69
:040D140001F01200D8
:100D18000001896B8A6B7DC085F07EC086F07FC03C
:100D280087F080C088F08851FF0A08E18751FF0AE0
:100D380005E18651FF0A02E18551FF0A0DE181C0F4
:100D48008BF082C08CF0310E8D6F000E8E6FF3EC3D
:100D580001F0030E006EF0D1010E836F87AF0ED045
:100D6800800E8719006E00C087F0832B81C0E1FFD9
:100D780082C0E2FF2D0EE66E814B822B000E006EC4
:100D8800881908E10050871905E10050861902E129
:100D98008551000A0CE181C08BF082C08CF0370EBF
:100DA8008D6F000E8E6FF3EC01F0006AC5D188518B
:100DB800FF0A08E18751000A05E18651000A02E1AD
:100DC8008551000A0DE181C08BF082C08CF0390E8C
:100DD8008D6F000E8E6FF3EC01F083C000F0ACD184
:100DE800000E046E000E056E000E066E7F0E076E76
:100DF80085C000F086C001F087C002F088C003F00B
:100E08000BDC010ED8B0000E006E00521CE085C04D
:100E180000F086C001F087C002F088C003F0000E21
:100E2800046E000E056E200E066E820E076E01EC33
:100E380001F000C085F001C086F002C087F003C051
:100E480088F08A07CDD7000E046E000E056E200EBE
:100E5800066E820E076E85C000F086C001F087C05E
:100E680002F088C003F010EC03F0000ED8B0010EB9
:100E7800006E00521CE085C000F086C001F087C0FB
:100E880002F088C003F0CD0E046ECC0E056E4C0E39
:100E9800066E7B0E076E01EC01F000C085F001C004
:100EA80086F002C087F003C088F08A2BCCD7FF0EEB
:100EB8008515086EFF0E8615096E7F0E87150A6E5A
:100EC800000E88150B6E08C004F009C005F00AC0B2
:100ED80006F00BC007F004360490053606360736D0
:100EE800000E8515006E000E8615016E000E871522
:100EF800026EFF0E8815036E00C085F001C086F0F3
:100F080002C087F003C088F004508511006E0550B8
:100F18008611016E06508711026E07508811036E04
:100F280000C085F001C086F002C087F003C088F0D9
:100F38007F0E885D006E00C084F0010E886F00C0CF
:100F480004F085C000F086C001F087C002F088C0B8
:100F580003F0045007E000360090013602360336ED
:100F6800FF0FF8D700C085F001C086F002C087F0F7
:100F780003C088F081C0E1FF82C0E2FF8851300FD2
:100F8800E66E814B822B800E8A19006E800E010A54
:100F9800005C08E3800E060A006E800E8A19005C69
:100FA80001E30AD081C0E1FF82C0E2FF2E0EE66EA7
:100FB800814B822B010E896F060E846F8451000AC3
:100FC80054E0886B85C000F086C001F087C002F04D
:100FD80088C003F00036009001360236033600362A
:100FE80000900136023603368551002686510122CB
:100FF800875102228851032200C085F001C086F083
:1010080002C087F003C088F085C000F086C001F0F8
:1010180087C002F088C003F000360090013602361F
:10102800033600C085F001C086F002C087F003C017
:1010380088F081C0E1FF82C0E2FF8851300FE66E80
:10104800814B822B8951000A0EE18A078A51000AD6
:101058000AE181C0E1FF82C0E2FF2E0EE66E814BFD
:10106800822B010E896F8407A9D7FF0E8125E96EAF
:10107800FF0E8221EA6EEE50300A05E1010E815F13
:10108800000E825BF2D7FF0E8125E96EFF0E8221EA
:10109800EA6EEE502E0A04E1010E815F000E825BBB
:1010A8008A51000A43E081C0E1FF82C0E2FF650E79
:1010B800E66E814B822B800E8A19006E800E000A24
:1010C800005C0BE281C0E1FF82C0E2FF2D0EE66EFC
:1010D800814B822B8A5100088A6F8AC084F0800E67
:1010E800090A006E800E8A19005C0FE20A0E046E6F
:1010F80084C000F0B2EC00F081C0E1FF82C0E2FFE2
:101108000050300FE66E814B822B0A0E046E84C0AD
:1011180000F0B2EC00F008C000F081C0E1FF82C02E
:10112800E2FF0050300FE66E814B822B81C0E1FF59
:0A11380082C0E2FFE66A006A1200BE
:101142000B6A0C6A0A6A0350D8B4D6EF08F00A9EFA
:10115200028E860E035E03BEB4EF08F0D8B4B4EF7D
:1011620008F0D9EF08F0036C080E035CD8A0C2EFB8
:1011720008F0036E0236026A0350D8A4D890CBEF6F
:1011820008F00350D8B4CBEF08F0D8900232032E07
:10119200C6EF08F00BBC02A0D6EF08F0D8A0D6EF3D
:1011A20008F0022AD8B4E0EF08F0016AE6EF08F08E
:1011B2000B800BAEEAEF08F0016AEAEF08F0010ECD
:1011C2000C6E41EC04F0ECEF08F0000E0C6EECEF4C
:0C11D20008F0FF0E0C6E0250006E1200C0
:0811DE00067E4FEC04F0120044
:1011E6000450000A12E10550000A0FE10650000AF9
:1011F6000CE10750000A09E1FF0E006EFF0E016EBA
:101206007F0E026EFF0E036EA8D0086A096A0750A9
:10121600D8B49EEF09F00350D8B4A3EF09F00250FA
:1012260006180A6E028E068E0E6A02C008F001C00B
:101236000CF000C00DF004500D5E0550D8A0053C22
:101246000C5E0650D8A0063C085E086A0C6A0D6A59
:10125600D8A035EF09F0D8900232013200320832B8
:10126600010E0E6E0750035ED8A042EF09F07E0E07
:101276000E240326D8B0A8EF09F048EF09F07E0E39
:101286000E240326D8A0ADEF09F0180E0B6E0D360E
:101296000C3608360036013602360E360450005E2D
:1012A6000550D8A0053C015E0650D8A0063C025E5B
:1012B60006340E120EA063EF09F00D806EEF09F0F2
:1012C600045000260550D8B0053C01260650D8B07B
:1012D600062802260D900B2E4AEF09F094EF09F02E
:1012E600D8900036013602360E360450005E0550A0
:1012F600D8A0053C015E0650D8A0063C025E063426
:101306000E10010B0D26D8B00C2AD8B4082AD8A482
:1013160094EF09F008320C320D32032AD8B4A8EF44
:1013260009F00AAE089E0850026E0C50016E0D5070
:10133600006EB0EF09F0010E3DEC04F0B0EF09F0DD
:10134600020E9BEC00F0B0EF09F0040EA6EC00F0E4
:0C135600B0EF09F0080E4FEC00F01200A0
:10136200480E00018F6F5CEC00F07C6B7C5107082B
:1013720012E30F0E7C25F66E220EF76E000EF72298
:10138200000EF86E000EF8220900F5CF8BF091ECFA
:1013920001F07C2BEBD7020E8F6F5CEC00F07AC071
:1013A2008BF07BC08CF0010E8D6F98EC01F0120077
:1013B2000B6A0350D8B41FEF0AF002500A6E028E75
:1013C2008E0E035E03AE23EF0AF0036C080E035C7D
:1013D200D8A0FEEF09F0036E013602C001F0026AE6
:1013E200080E035CD8A0FEEF09F0036E0136016A15
:1013F2000350D8A4D89008EF0AF00350D8B408EFED
:101402000AF0D89002320132032E02EF0AF00BBC2E
:1014120001A015EF0AF0D8A015EF0AF0012AD8B4FE
:10142200022A02BE32EF0AF00AAE38EF0AF0021EBA
:10143200011E012AD8B4022A38EF0AF0026A016AB0
:1014420038EF0AF00B800BAE3CEF0AF0026A0AAEEC
:101452003CEF0AF0FF0E026E016E0A3602323CEFDA
:101462000AF0010E0C6E41EC04F03EEF0AF0000EA1
:101472000C6E3EEF0AF0FF0E0C6E0150006E025031
:04148200016E1200E5
:10148600000166A108D066836691000E66B3010E60
:101496007D6FF9EC03F01EC07DF01FC07EF020C00A
:1014A6007FF021C080F0570E816F000E826F31DC15
:1014B600010E8B6F040E8C6F410E8D6F98EC01F050
:1014C6004A0E8B6F91EC01F0550E8B6F91EC01F08B
:1014D600530E8B6F91EC01F0540E8B6F91EC01F073
:1014E600450E8B6F91EC01F0200E8B6F91EC01F0A5
:1014F600530E8B6F91EC01F0500E8B6F91EC01F057
:10150600020E8B6F070E8C6F57C08DF098EC01F0B2
:1015160058C08BF091EC01F059C08BF091EC01F0C2
:0A1526005AC08BF091EC01F01200A6
:10153000000166A108D066836691000E66B3010EB5
:101540007D6FF9EC03F02AC07DF02BC07EF02CC03B
:101550007FF02DC080F0570E816F000E826F8CECF3
:1015600006F0010E8B6F040E8C6F410E8D6F98ECA0
:1015700001F04A0E8B6F91EC01F0550E8B6F91ECE0
:1015800001F0530E8B6F91EC01F0540E8B6F91ECC8
:1015900001F0450E8B6F91EC01F0200E8B6F91ECFA
:1015A00001F04B0E8B6F91EC01F0440E8B6F91ECC0
:1015B00001F0020E8B6F070E8C6F57C08DF098EC08
:1015C00001F058C08BF091EC01F059C08BF091EC18
:0415D00001F0120014
:1015D400000166A108D066836691000E66B3010E11
:1015E4007D6FF9EC03F022C07DF023C07EF024C0AF
:1015F4007FF025C080F0570E816F000E826F8CEC57
:1016040006F0010E8B6F040E8C6F410E8D6F98ECFB
:1016140001F04A0E8B6F91EC01F0550E8B6F91EC3B
:1016240001F0530E8B6F91EC01F0540E8B6F91EC23
:1016340001F0450E8B6F91EC01F0200E8B6F91EC55
:1016440001F04B0E8B6F91EC01F0490E8B6F91EC16
:1016540001F0020E8B6F070E8C6F57C08DF098EC63
:1016640001F058C08BF091EC01F059C08BF091EC73
:0416740001F012006F
:10167800086A080E0C6E003408360450085ED8B0AC
:0E16880002D00826D89000360C2EF5D712009E
:10169600000166A108D066836691000E66B3010E4E
:1016A6007D6FF9EC03F0010E2E6E000E2F6E266A8A
:0E16B600276A286A296A62EC06F0669512001F
:1016C40000017A6B7B6B7C6B7A6B640E7A5D0AE249
:1016D4007D6BDAEC03F0005000017B2701507C2382
:1016E4007A2BF3D7640E046E000E056E7BC000F0F7
:0A16F4007CC001F077EC03F0120057
:1016FE0000C008F00150006E016A026A036A0B6AAC
:10170E000C6A016A026A036A960E036E0A6A00AEDA
:10171E0097EF0BF0081E001E082AD8B4002A0A8E76
:10172E0000C001F008C000F0086A026A04EC04F080
:02173E00120097
:10174000000166A108D066836691000E66B3010EA3
:101750007D6FF9EC03F01AC07DF01BC07EF01CC059
:101760007FF01DC080F0570E816F000E826F8CECF1
:1017700006F0010E8B6F040E8C6F410E8D6F98EC8E
:1017800001F04A0E8B6F91EC01F0550E8B6F91ECCE
:1017900001F0530E8B6F91EC01F0540E8B6F91ECB6
:1017A00001F0450E8B6F91EC01F0200E8B6F91ECE8
:1017B00001F04B0E8B6F91EC01F0500E8B6F91ECA2
:1017C00001F0020E8B6F070E8C6F57C08DF098ECF6
:1017D00001F058C08BF091EC01F059C08BF091EC06
:0417E00001F0120002
:1017E40081B806D000016B816BA302D06B816B932F
:1017F40081A810D000016BA10DD066B503D0668519
:10180400668105D066A503D02E4A2F2A6681416AD7
:10181400426A6B91000166A5FAD181BA04D06BA328
:1018240002D0668F6B9381AA05D166AF03D1000EF7
:101834002F1802E1010E2E183BE11EC000F01FC05C
:1018440001F020C002F021C003F0000E046E000E6F
:10185400056E000E066E7E0E076E4FEC04F000C09F
:101864001EF001C01FF002C020F003C021F000C030
:1018740004F001C005F002C006F003C007F0000E3A
:10188400006E000E016E200E026E850E036E10ECCB
:1018940003F0010ED8B0000E006E005208E0000EF6
:1018A4001E6E000E1F6E200E206E830E216EBED0A3
:1018B400000E2F1802E1020E2E1837E11AC000F0B4
:1018C4001BC001F01CC002F01DC003F0CD0E046E5D
:1018D400CC0E056E4C0E066E7B0E076E4FEC04F0BC
:1018E40000C01AF001C01BF002C01CF003C01DF0C0
:1018F40000C004F001C005F002C006F003C007F008
:10190400660E006E660E016E1E0E026E820E036E71
:1019140010EC03F0010ED8B0000E006E005204E08B
:101924001A6A1B6A1C6A1D6A81D0000E2F1802E114
:10193400030E2E183BE122C000F023C001F024C0A6
:1019440002F025C003F0CD0E046ECC0E056E4C0ED5
:10195400066E7B0E076E4FEC04F000C022F001C04F
:1019640023F002C024F003C025F000C004F001C03D
:1019740005F002C006F003C007F0660E006E660EA6
:10198400016E1E0E026E820E036E10EC03F0010E49
:10199400D8B0000E006E005208E0CD0E226ECC0EC0
:1019A400236E4C0E246E7B0E256E40D0000E2F1835
:1019B40002E1040E2E183AE12AC000F02BC001F017
:1019C4002CC002F02DC003F0CD0E046ECC0E056EBB
:1019D4004C0E066E7B0E076E4FEC04F000C02AF02E
:1019E40001C02BF002C02CF003C02DF000C004F0A5
:1019F40001C005F002C006F003C007F0660E006ED9
:101A0400660E016E1E0E026E820E036E10EC03F063
:101A1400010ED8B0000E006E005208E0CD0E2A6E02
:101A2400CC0E2B6E4C0E2C6E7B0E2D6E0001416A7B
:101A3400426A669F81BC04D06BA302D0668D6B930F
:101A440081ACE5D066ADE3D0000E2F1802E1010EA3
:101A54002E1833E1000E046E000E056E000E066EA5
:101A64007E0E076E1EC000F01FC001F020C002F001
:101A740021C003F0EFEC08F000C01EF001C01FF01D
:101A840002C020F003C021F0000E046E000E056EAB
:101A9400200E066E830E076E10EC03F0010ED8B014
:101AA400000E006E005208E0000E1E6E000E1F6E47
:101AB400200E206E850E216EA6D0000E2F1802E196
:101AC400020E2E182FE1CD0E046ECC0E056E4C0EB8
:101AD400066E7B0E076E1AC000F01BC001F01CC01E
:101AE40002F01DC003F0EFEC08F000C01AF001C0D2
:101AF4001BF002C01CF003C01DF0046A056A066AEC
:101B0400076A10EC03F0010ED8B0000E006E00520C
:101B140008E0660E1A6E660E1B6E1E0E1C6E820E9A
:101B24001D6E71D0000E2F1802E1030E2E1833E142
:101B3400CD0E046ECC0E056E4C0E066E7B0E076E3B
:101B440022C000F023C001F024C002F025C003F03D
:101B5400EFEC08F000C022F001C023F002C024F032
:101B640003C025F0CD0E046ECC0E056E4C0E066E31
:101B74007B0E076E10EC03F0010ED8B0000E006E61
:101B8400005208E0660E226E660E236E1E0E246E50
:101B9400820E256E38D0000E2F1802E1040E2E1886
:101BA40032E1CD0E046ECC0E056E4C0E066E7B0E2D
:101BB400076E2AC000F02BC001F02CC002F02DC02B
:101BC40003F0EFEC08F000C02AF001C02BF002C0D3
:101BD4002CF003C02DF0CD0E046ECC0E056E4C0E11
:101BE400066E7B0E076E10EC03F0010ED8B0000EEB
:101BF400006E005208E0660E2A6E660E2B6E1E0EF4
:101C04002C6E820E2D6E0001416A426A669D66A5A5
:101C140008D066A706D066976681050E2E6E000E64
:041C24002F6E12000D
:101C2800959695949598959A959C959E8396839468
:101C3800839E839C839A839841EC00F041EC00F0EA
:101C480041EC00F0838A838883864AEC00F083960F
:101C580041EC00F083864AEC00F0839641EC00F0FA
:101C680083864AEC00F0839641EC00F083988386E3
:101C78004AEC00F0839641EC00F083864AEC00F0D1
:101C88008396839A838E83864AEC00F0839641EC90
:101C980000F0839E838883864AEC00F083968398BD
:101CA80083864AEC00F0839641EC00F083864AEC88
:101CB80000F08396838883864AEC00F0839641EC93
:101CC80000F0839883864AEC00F08396838E838C99
:101CD800838A838883864AEC00F0839641EC00F07F
:061CE8000001668B1200F2
:101CEE000900F5CFE6FF0006FBE10106F9E112005F
:101CFE0040C03DF0640E046E40C000F0B6DC00C083
:101D0E006EF0640E046E40C000F0AFDC08C000F050
:101D1E000A0E046EAADC00C06CF00A0E046E40C0FF
:101D2E0000F0A3DC08C000F000C06DF0010E000151
:101D3E008B6F060E8C6F300E6E258D6F98EC01F04A
:101D4E00300E6C258B6F91EC01F0300E6D258B6F84
:061D5E0091EC01F01200FF
:101D640016C000F017C001F018C002F019C003F04B
:101D7400D9EC09F000C078F001C079F078C047F0E0
:101D840079C048F078C000F079C001F0B6DC00C03A
:101D940004F001C005F002C006F003C007F01EC045
:101DA40000F01FC001F020C002F021C003F0EFECEE
:101DB40008F000C06CF001C06DF002C06EF003C00A
:101DC4006FF06CC043F06DC044F06EC045F06FC05E
:101DD40046F06CC000F06DC001F06EC002F06FC040
:101DE40003F01AC004F01BC005F01CC006F01DC0AF
:101DF40007F001EC01F000C074F001C075F002C0FE
:101E040076F003C077F074C04FF075C050F076C020
:101E140051F077C052F06CC000F06DC001F06EC09C
:101E240002F06FC003F022C004F023C005F024C008
:101E340006F025C007F001EC01F0CD0E046ECC0EC7
:101E4400056E4C0E066E7B0E076E01EC01F053C05E
:101E540004F054C005F055C006F056C007F04FEC2E
:101E640004F000C070F001C071F002C072F003C051
:101E740073F070C053F071C054F072C055F073C069
:101E840056F0000178514D5C006E79514E58016E48
:101E940034DC2AC004F02BC005F02CC006F02DC0A1
:101EA40007F001EC01F0CD0E046ECC0E056E4C0E65
:101EB400066E7B0E076EF3EC08F000C06CF001C0F8
:101EC4006DF002C06EF003C06FF06CC049F06DC0DD
:101ED4004AF06EC04BF06FC04CF078C04DF079C042
:101EE4004EF074C000F075C001F076C002F077C007
:101EF40003F070C004F071C005F072C006F073C046
:101F040007F04FEC04F06CC004F06DC005F06EC037
:101F140006F06FC007F04FEC04F000C067F001C09A
:101F240068F002C069F003C06AF0000E046E000E8F
:101F3400056E000E066E810E076EF3EC08F000C00D
:101F440067F001C068F002C069F003C06AF0000ED7
:101F5400046E000E056E000E066E860E076E4FECC4
:101F640004F0A1EC08F000C040F0000E010A02E108
:0C1F7400000E001802E1FF0E406E12008B
:101F800062EC0BF000C03EF001C03FF07FEC0BF0C4
:101F9000000E046E000E056E200E066E810E076E9A
:101FA00001EC01F0000E046E000E056E000E066ED0
:101FB000890E076EF3EC08F000C016F001C017F0B0
:101FC00002C018F003C019F0000E046E000E056E7A
:101FD000480E066E850E076E01EC01F000C06CF035
:101FE00001C06DF002C06EF003C06FF06CC016F05F
:101FF0006DC017F06EC018F06FC019F0000E046EBF
:10200000000E056E000E066E7E0E076E26C000F0F6
:1020100027C001F028C002F029C003F0EFEC08F05F
:1020200000C004F001C005F002C006F003C007F0D4
:102030006CC000F06DC001F06EC002F06FC003F024
:1020400010EC03F0010ED8B0000E006E005223E138
:1020500026C000F027C001F028C002F029C003F01C
:10206000000E046E000E056E000E066E7E0E076EEC
:102070004FEC04F016C004F017C005F018C006F0CD
:1020800019C007F010EC03F0010ED8B0000E006E7E
:10209000005201E13DD016C026F017C027F018C04D
:1020A00028F019C029F016C07DF017C07EF018C0C6
:1020B0007FF019C080F0570E0001816F000E826F13
:1020C0008CEC06F0020E8B6F060E8C6F57C08DF0F5
:1020D00098EC01F058C08BF091EC01F059C08BF0F6
:1020E00091EC01F05AC08BF091EC01F05BC08BF0E9
:1020F00091EC01F0020E7A6F0B0E7B6FB1EC09F0E0
:10210000020E8B6F0C0E8C6F430E8D6F98EC01F0EE
:022110001200BB
:102112000FD043EC0AF02AD0A0EC0BF027D0EAEC67
:102122000AF024D098EC0AF021D04BEC0BF01ED030
:10213200000E2F1802E1010E2E18EBE0000E2F18F0
:1021420002E1020E2E18E8E0000E2F1802E1030E43
:102152002E18E5E0000E2F1802E1040E2E18E2E020
:0E216200000E2F1802E1050E2E18DFE012000D
:102170000CEC11F0010EC26E0E0EC16E180EC06E88
:10218000F19EF80E936E030E956EFC0E8A6EE00EB5
:10219000F26E9D829E0ED76E580ED66E810ED56E53
:1021A000050ECA6EFF0ECB6E800E406E3DDD0C0E2E
:1021B0008F6F5CEC00F0010E8F6F5CEC00F062EC56
:1021C00006F0F2EC0BF066A502D0A3DF02D097DD9B
:1021D000D7DE000166A903D0C5DD00016699F1D7FD
:0221E000FFD727
:1022180010EE16F02D0E006E010E016EE20EF66E37
:0E222800210EF76E000EF86E77EC0EF012002D
:0421E20000000000F9
:0421E6000000208154
:0421EA000000488326
:0421EE00CDCC4C7B8D
:0421F20000000000E9
:0421F600CDCC4C7B85
:0221FA000100E2
:0121FC0030B2
:0421FD004E614E00E1
:022201000000DB
:022203003000A9
:04220500494E4600F8
:012209008054
:02220A000000D2
:01220C0000D1
:02220D000000CF
:08220F000609060000000000B2
:020000040030CA
:0E0000001B0E1E1EFF8381FF0FC00FE00F407E
:00000001FF
